{
  "contractName": "GLXFactory",
  "abi": [
    {
      "anonymous": false,
      "inputs": [
        {
          "indexed": false,
          "internalType": "address",
          "name": "a",
          "type": "address"
        }
      ],
      "name": "Game",
      "type": "event"
    },
    {
      "anonymous": false,
      "inputs": [
        {
          "indexed": true,
          "internalType": "address",
          "name": "previousOwner",
          "type": "address"
        },
        {
          "indexed": true,
          "internalType": "address",
          "name": "newOwner",
          "type": "address"
        }
      ],
      "name": "OwnershipTransferred",
      "type": "event"
    },
    {
      "inputs": [
        {
          "internalType": "address",
          "name": "",
          "type": "address"
        }
      ],
      "name": "getGameExtToken",
      "outputs": [
        {
          "internalType": "address",
          "name": "",
          "type": "address"
        }
      ],
      "stateMutability": "view",
      "type": "function",
      "constant": true
    },
    {
      "inputs": [
        {
          "internalType": "address",
          "name": "",
          "type": "address"
        }
      ],
      "name": "getIntToken",
      "outputs": [
        {
          "internalType": "address",
          "name": "",
          "type": "address"
        }
      ],
      "stateMutability": "view",
      "type": "function",
      "constant": true
    },
    {
      "inputs": [
        {
          "internalType": "address",
          "name": "",
          "type": "address"
        }
      ],
      "name": "getLiquidPool",
      "outputs": [
        {
          "internalType": "address",
          "name": "",
          "type": "address"
        }
      ],
      "stateMutability": "view",
      "type": "function",
      "constant": true
    },
    {
      "inputs": [
        {
          "internalType": "address",
          "name": "",
          "type": "address"
        }
      ],
      "name": "getMintDiscount",
      "outputs": [
        {
          "internalType": "uint256",
          "name": "",
          "type": "uint256"
        }
      ],
      "stateMutability": "view",
      "type": "function",
      "constant": true
    },
    {
      "inputs": [],
      "name": "owner",
      "outputs": [
        {
          "internalType": "address",
          "name": "",
          "type": "address"
        }
      ],
      "stateMutability": "view",
      "type": "function",
      "constant": true
    },
    {
      "inputs": [],
      "name": "renounceOwnership",
      "outputs": [],
      "stateMutability": "nonpayable",
      "type": "function"
    },
    {
      "inputs": [
        {
          "internalType": "address",
          "name": "newOwner",
          "type": "address"
        }
      ],
      "name": "transferOwnership",
      "outputs": [],
      "stateMutability": "nonpayable",
      "type": "function"
    },
    {
      "inputs": [
        {
          "internalType": "address",
          "name": "router",
          "type": "address"
        },
        {
          "internalType": "address",
          "name": "extToken",
          "type": "address"
        },
        {
          "internalType": "address",
          "name": "intToken",
          "type": "address"
        },
        {
          "internalType": "address",
          "name": "finToken",
          "type": "address"
        },
        {
          "internalType": "address",
          "name": "liquidPool",
          "type": "address"
        },
        {
          "internalType": "uint256",
          "name": "startBlockNumber",
          "type": "uint256"
        },
        {
          "internalType": "uint256",
          "name": "endBlockNumber",
          "type": "uint256"
        },
        {
          "internalType": "bool",
          "name": "isOnChainGame",
          "type": "bool"
        },
        {
          "internalType": "address",
          "name": "gameObjectToken",
          "type": "address"
        },
        {
          "internalType": "uint256",
          "name": "gameObjectTokenSupply",
          "type": "uint256"
        }
      ],
      "name": "createGame",
      "outputs": [
        {
          "internalType": "address",
          "name": "game",
          "type": "address"
        }
      ],
      "stateMutability": "nonpayable",
      "type": "function"
    },
    {
      "inputs": [
        {
          "internalType": "address",
          "name": "intToken",
          "type": "address"
        },
        {
          "internalType": "uint256",
          "name": "mintDiscount",
          "type": "uint256"
        }
      ],
      "name": "setMintDiscount",
      "outputs": [
        {
          "internalType": "bool",
          "name": "",
          "type": "bool"
        }
      ],
      "stateMutability": "nonpayable",
      "type": "function"
    }
  ],
  "bytecode": "0x608060405260006100146100b760201b60201c565b9050806000806101000a81548173ffffffffffffffffffffffffffffffffffffffff021916908373ffffffffffffffffffffffffffffffffffffffff1602179055508073ffffffffffffffffffffffffffffffffffffffff16600073ffffffffffffffffffffffffffffffffffffffff167f8be0079c531659141344cd1fd0a4f28419497f9722a3daafe3b4186f6b6457e060405160405180910390a3506100bf565b600033905090565b614814806100ce6000396000f3fe608060405234801561001057600080fd5b50600436106100935760003560e01c8063715018a611610066578063715018a6146103295780638be62fba146103335780638da5cb5b146103b757806399715c3c14610401578063f2fde38b1461048557610093565b806320ac43c91461009857806323d9adb9146101e75780634b77f6351461024d5780636f4ca3af146102a5575b600080fd5b6101a560048036036101408110156100af57600080fd5b81019080803573ffffffffffffffffffffffffffffffffffffffff169060200190929190803573ffffffffffffffffffffffffffffffffffffffff169060200190929190803573ffffffffffffffffffffffffffffffffffffffff169060200190929190803573ffffffffffffffffffffffffffffffffffffffff169060200190929190803573ffffffffffffffffffffffffffffffffffffffff1690602001909291908035906020019092919080359060200190929190803515159060200190929190803573ffffffffffffffffffffffffffffffffffffffff169060200190929190803590602001909291905050506104c9565b604051808273ffffffffffffffffffffffffffffffffffffffff1673ffffffffffffffffffffffffffffffffffffffff16815260200191505060405180910390f35b610233600480360360408110156101fd57600080fd5b81019080803573ffffffffffffffffffffffffffffffffffffffff16906020019092919080359060200190929190505050610a4a565b604051808215151515815260200191505060405180910390f35b61028f6004803603602081101561026357600080fd5b81019080803573ffffffffffffffffffffffffffffffffffffffff169060200190929190505050610e15565b6040518082815260200191505060405180910390f35b6102e7600480360360208110156102bb57600080fd5b81019080803573ffffffffffffffffffffffffffffffffffffffff169060200190929190505050610e2d565b604051808273ffffffffffffffffffffffffffffffffffffffff1673ffffffffffffffffffffffffffffffffffffffff16815260200191505060405180910390f35b610331610e60565b005b6103756004803603602081101561034957600080fd5b81019080803573ffffffffffffffffffffffffffffffffffffffff169060200190929190505050610fe8565b604051808273ffffffffffffffffffffffffffffffffffffffff1673ffffffffffffffffffffffffffffffffffffffff16815260200191505060405180910390f35b6103bf61101b565b604051808273ffffffffffffffffffffffffffffffffffffffff1673ffffffffffffffffffffffffffffffffffffffff16815260200191505060405180910390f35b6104436004803603602081101561041757600080fd5b81019080803573ffffffffffffffffffffffffffffffffffffffff169060200190929190505050611044565b604051808273ffffffffffffffffffffffffffffffffffffffff1673ffffffffffffffffffffffffffffffffffffffff16815260200191505060405180910390f35b6104c76004803603602081101561049b57600080fd5b81019080803573ffffffffffffffffffffffffffffffffffffffff169060200190929190505050611077565b005b60006104d3611284565b73ffffffffffffffffffffffffffffffffffffffff166000809054906101000a900473ffffffffffffffffffffffffffffffffffffffff1673ffffffffffffffffffffffffffffffffffffffff1614610594576040517f08c379a00000000000000000000000000000000000000000000000000000000081526004018080602001828103825260208152602001807f4f776e61626c653a2063616c6c6572206973206e6f7420746865206f776e657281525060200191505060405180910390fd5b600073ffffffffffffffffffffffffffffffffffffffff168a73ffffffffffffffffffffffffffffffffffffffff161415610637576040517f08c379a00000000000000000000000000000000000000000000000000000000081526004018080602001828103825260198152602001807f474c58466163746f72793a20544f4b454e5f494e56414c49440000000000000081525060200191505060405180910390fd5b600073ffffffffffffffffffffffffffffffffffffffff168973ffffffffffffffffffffffffffffffffffffffff1614156106da576040517f08c379a00000000000000000000000000000000000000000000000000000000081526004018080602001828103825260198152602001807f474c58466163746f72793a20544f4b454e5f494e56414c49440000000000000081525060200191505060405180910390fd5b6106eb8b8b8b8b8a8a8a8a8a61128c565b905089600160008373ffffffffffffffffffffffffffffffffffffffff1673ffffffffffffffffffffffffffffffffffffffff16815260200190815260200160002060006101000a81548173ffffffffffffffffffffffffffffffffffffffff021916908373ffffffffffffffffffffffffffffffffffffffff160217905550600073ffffffffffffffffffffffffffffffffffffffff16600260008c73ffffffffffffffffffffffffffffffffffffffff1673ffffffffffffffffffffffffffffffffffffffff16815260200190815260200160002060009054906101000a900473ffffffffffffffffffffffffffffffffffffffff1673ffffffffffffffffffffffffffffffffffffffff16141561087e5788600260008c73ffffffffffffffffffffffffffffffffffffffff1673ffffffffffffffffffffffffffffffffffffffff16815260200190815260200160002060006101000a81548173ffffffffffffffffffffffffffffffffffffffff021916908373ffffffffffffffffffffffffffffffffffffffff1602179055505b600073ffffffffffffffffffffffffffffffffffffffff16600360008b73ffffffffffffffffffffffffffffffffffffffff1673ffffffffffffffffffffffffffffffffffffffff16815260200190815260200160002060009054906101000a900473ffffffffffffffffffffffffffffffffffffffff1673ffffffffffffffffffffffffffffffffffffffff1614156109d65786600360008b73ffffffffffffffffffffffffffffffffffffffff1673ffffffffffffffffffffffffffffffffffffffff16815260200190815260200160002060006101000a81548173ffffffffffffffffffffffffffffffffffffffff021916908373ffffffffffffffffffffffffffffffffffffffff1602179055506001600460008b73ffffffffffffffffffffffffffffffffffffffff1673ffffffffffffffffffffffffffffffffffffffff168152602001908152602001600020819055505b7fcf2b16d9d9a6ab778996095754ddeb6cd4b3fd7ef34cee35dc84fdd97ea7238581604051808273ffffffffffffffffffffffffffffffffffffffff1673ffffffffffffffffffffffffffffffffffffffff16815260200191505060405180910390a18090509a9950505050505050505050565b6000610a54611284565b73ffffffffffffffffffffffffffffffffffffffff166000809054906101000a900473ffffffffffffffffffffffffffffffffffffffff1673ffffffffffffffffffffffffffffffffffffffff1614610b15576040517f08c379a00000000000000000000000000000000000000000000000000000000081526004018080602001828103825260208152602001807f4f776e61626c653a2063616c6c6572206973206e6f7420746865206f776e657281525060200191505060405180910390fd5b60008211610b8b576040517f08c379a000000000000000000000000000000000000000000000000000000000815260040180806020018281038252601e8152602001807f474c58466163746f72793a204d494e545f444953434f554e545f5a45524f000081525060200191505060405180910390fd5b600073ffffffffffffffffffffffffffffffffffffffff168373ffffffffffffffffffffffffffffffffffffffff161415610c2e576040517f08c379a000000000000000000000000000000000000000000000000000000000815260040180806020018281038252601d8152602001807f474c58466163746f72793a20494e545f544f4b454e5f494e56414c494400000081525060200191505060405180910390fd5b600073ffffffffffffffffffffffffffffffffffffffff16600360008573ffffffffffffffffffffffffffffffffffffffff1673ffffffffffffffffffffffffffffffffffffffff16815260200190815260200160002060009054906101000a900473ffffffffffffffffffffffffffffffffffffffff1673ffffffffffffffffffffffffffffffffffffffff161415610d30576040517f08c379a000000000000000000000000000000000000000000000000000000000815260040180806020018281038252601f8152602001807f474c58466163746f72793a20494e545f544f4b454e5f4e4f545f45584953540081525060200191505060405180910390fd5b81600460008573ffffffffffffffffffffffffffffffffffffffff1673ffffffffffffffffffffffffffffffffffffffff1681526020019081526020016000205410610dc7576040517f08c379a00000000000000000000000000000000000000000000000000000000081526004018080602001828103825260228152602001806147bd6022913960400191505060405180910390fd5b81600460008573ffffffffffffffffffffffffffffffffffffffff1673ffffffffffffffffffffffffffffffffffffffff168152602001908152602001600020819055506001905092915050565b60046020528060005260406000206000915090505481565b60026020528060005260406000206000915054906101000a900473ffffffffffffffffffffffffffffffffffffffff1681565b610e68611284565b73ffffffffffffffffffffffffffffffffffffffff166000809054906101000a900473ffffffffffffffffffffffffffffffffffffffff1673ffffffffffffffffffffffffffffffffffffffff1614610f29576040517f08c379a00000000000000000000000000000000000000000000000000000000081526004018080602001828103825260208152602001807f4f776e61626c653a2063616c6c6572206973206e6f7420746865206f776e657281525060200191505060405180910390fd5b600073ffffffffffffffffffffffffffffffffffffffff166000809054906101000a900473ffffffffffffffffffffffffffffffffffffffff1673ffffffffffffffffffffffffffffffffffffffff167f8be0079c531659141344cd1fd0a4f28419497f9722a3daafe3b4186f6b6457e060405160405180910390a360008060006101000a81548173ffffffffffffffffffffffffffffffffffffffff021916908373ffffffffffffffffffffffffffffffffffffffff160217905550565b60016020528060005260406000206000915054906101000a900473ffffffffffffffffffffffffffffffffffffffff1681565b60008060009054906101000a900473ffffffffffffffffffffffffffffffffffffffff16905090565b60036020528060005260406000206000915054906101000a900473ffffffffffffffffffffffffffffffffffffffff1681565b61107f611284565b73ffffffffffffffffffffffffffffffffffffffff166000809054906101000a900473ffffffffffffffffffffffffffffffffffffffff1673ffffffffffffffffffffffffffffffffffffffff1614611140576040517f08c379a00000000000000000000000000000000000000000000000000000000081526004018080602001828103825260208152602001807f4f776e61626c653a2063616c6c6572206973206e6f7420746865206f776e657281525060200191505060405180910390fd5b600073ffffffffffffffffffffffffffffffffffffffff168173ffffffffffffffffffffffffffffffffffffffff1614156111c6576040517f08c379a00000000000000000000000000000000000000000000000000000000081526004018080602001828103825260268152602001806147976026913960400191505060405180910390fd5b8073ffffffffffffffffffffffffffffffffffffffff166000809054906101000a900473ffffffffffffffffffffffffffffffffffffffff1673ffffffffffffffffffffffffffffffffffffffff167f8be0079c531659141344cd1fd0a4f28419497f9722a3daafe3b4186f6b6457e060405160405180910390a3806000806101000a81548173ffffffffffffffffffffffffffffffffffffffff021916908373ffffffffffffffffffffffffffffffffffffffff16021790555050565b600033905090565b60006060604051806020016112a09061148a565b6020820181038252601f19601f82011660405250905060008760405160200180828152602001915050604051602081830303815290604052805190602001209050808251602084016000f592508273ffffffffffffffffffffffffffffffffffffffff16638f47ac718d8d8d8d8d8d8d8d8d6040518a63ffffffff1660e01b8152600401808a73ffffffffffffffffffffffffffffffffffffffff1673ffffffffffffffffffffffffffffffffffffffff1681526020018973ffffffffffffffffffffffffffffffffffffffff1673ffffffffffffffffffffffffffffffffffffffff1681526020018873ffffffffffffffffffffffffffffffffffffffff1673ffffffffffffffffffffffffffffffffffffffff1681526020018773ffffffffffffffffffffffffffffffffffffffff1673ffffffffffffffffffffffffffffffffffffffff168152602001868152602001858152602001841515151581526020018373ffffffffffffffffffffffffffffffffffffffff1673ffffffffffffffffffffffffffffffffffffffff1681526020018281526020019950505050505050505050600060405180830381600087803b15801561146057600080fd5b505af1158015611474573d6000803e3d6000fd5b5050505082925050509998505050505050505050565b6132ff806114988339019056fe60806040526001601660006101000a81548160ff021916908360ff16021790555034801561002c57600080fd5b5033600260006101000a81548173ffffffffffffffffffffffffffffffffffffffff021916908373ffffffffffffffffffffffffffffffffffffffff1602179055506132828061007d6000396000f3fe608060405234801561001057600080fd5b506004361061021c5760003560e01c8063845bc80411610125578063d0c122d2116100ad578063ea0610381161007c578063ea061038146108c5578063ec4bbf771461090f578063ef7128fe1461092d578063f5da8b821461094b578063f887ea40146109a35761021c565b8063d0c122d214610793578063d84ce2d9146107b1578063e30fd440146107fb578063e43cceb6146108535761021c565b8063a4fd6f56116100f4578063a4fd6f561461069e578063a8f8d9df146106c0578063b4999e85146106e2578063c45a015514610700578063caa9aa701461074a5761021c565b8063845bc804146105555780638b6707b4146105735780638f47ac7114610591578063a4104bc7146106805761021c565b8063544736e6116101a8578063605ee8eb11610177578063605ee8eb1461048b578063606c7db0146104a9578063631135c9146104f357806369ee9fee146105155780637152f800146105335761021c565b8063544736e6146104075780635d2ad4e8146104295780635f48f3931461044b5780636007b239146104695761021c565b80633bb51ee4116101ef5780633bb51ee4146103075780633cb7e012146103515780633d83e5d7146103ad578063498a4c2d146103cb5780634d830d6f146103e95761021c565b80630145584b146102215780630b246c541461027d578063143c24de1461029f5780631df4111b146102bd575b600080fd5b6102636004803603602081101561023757600080fd5b81019080803573ffffffffffffffffffffffffffffffffffffffff1690602001909291905050506109ed565b604051808215151515815260200191505060405180910390f35b61028561110f565b604051808215151515815260200191505060405180910390f35b6102a7611122565b6040518082815260200191505060405180910390f35b6102c5611128565b604051808273ffffffffffffffffffffffffffffffffffffffff1673ffffffffffffffffffffffffffffffffffffffff16815260200191505060405180910390f35b61030f61114e565b604051808273ffffffffffffffffffffffffffffffffffffffff1673ffffffffffffffffffffffffffffffffffffffff16815260200191505060405180910390f35b6103936004803603602081101561036757600080fd5b81019080803573ffffffffffffffffffffffffffffffffffffffff169060200190929190505050611174565b604051808215151515815260200191505060405180910390f35b6103b5611194565b6040518082815260200191505060405180910390f35b6103d361119a565b6040518082815260200191505060405180910390f35b6103f16111a0565b6040518082815260200191505060405180910390f35b61040f6111be565b604051808215151515815260200191505060405180910390f35b6104316111d9565b604051808215151515815260200191505060405180910390f35b61045361153a565b6040518082815260200191505060405180910390f35b610471611540565b604051808215151515815260200191505060405180910390f35b610493611553565b6040518082815260200191505060405180910390f35b6104b1611559565b604051808273ffffffffffffffffffffffffffffffffffffffff1673ffffffffffffffffffffffffffffffffffffffff16815260200191505060405180910390f35b6104fb61157f565b604051808215151515815260200191505060405180910390f35b61051d6116d0565b6040518082815260200191505060405180910390f35b61053b6116d6565b604051808215151515815260200191505060405180910390f35b61055d6116e9565b6040518082815260200191505060405180910390f35b61057b611842565b6040518082815260200191505060405180910390f35b61067e60048036036101208110156105a857600080fd5b81019080803573ffffffffffffffffffffffffffffffffffffffff169060200190929190803573ffffffffffffffffffffffffffffffffffffffff169060200190929190803573ffffffffffffffffffffffffffffffffffffffff169060200190929190803573ffffffffffffffffffffffffffffffffffffffff1690602001909291908035906020019092919080359060200190929190803515159060200190929190803573ffffffffffffffffffffffffffffffffffffffff16906020019092919080359060200190929190505050611848565b005b610688611a86565b6040518082815260200191505060405180910390f35b6106a6611a8c565b604051808215151515815260200191505060405180910390f35b6106c8611aa9565b604051808215151515815260200191505060405180910390f35b6106ea611ae5565b6040518082815260200191505060405180910390f35b610708611aeb565b604051808273ffffffffffffffffffffffffffffffffffffffff1673ffffffffffffffffffffffffffffffffffffffff16815260200191505060405180910390f35b6107796004803603602081101561076057600080fd5b81019080803560ff169060200190929190505050611b11565b604051808215151515815260200191505060405180910390f35b61079b611f31565b6040518082815260200191505060405180910390f35b6107b9611f36565b604051808273ffffffffffffffffffffffffffffffffffffffff1673ffffffffffffffffffffffffffffffffffffffff16815260200191505060405180910390f35b61083d6004803603602081101561081157600080fd5b81019080803573ffffffffffffffffffffffffffffffffffffffff169060200190929190505050611f5c565b6040518082815260200191505060405180910390f35b6108ab6004803603606081101561086957600080fd5b81019080803573ffffffffffffffffffffffffffffffffffffffff16906020019092919080351515906020019092919080359060200190929190505050611f74565b604051808215151515815260200191505060405180910390f35b6108cd61278c565b604051808273ffffffffffffffffffffffffffffffffffffffff1673ffffffffffffffffffffffffffffffffffffffff16815260200191505060405180910390f35b6109176127b2565b6040518082815260200191505060405180910390f35b6109356127b8565b6040518082815260200191505060405180910390f35b61098d6004803603602081101561096157600080fd5b81019080803573ffffffffffffffffffffffffffffffffffffffff1690602001909291905050506127be565b6040518082815260200191505060405180910390f35b6109ab6127d6565b604051808273ffffffffffffffffffffffffffffffffffffffff1673ffffffffffffffffffffffffffffffffffffffff16815260200191505060405180910390f35b60006001601660009054906101000a900460ff1660ff1614610a77576040517f08c379a000000000000000000000000000000000000000000000000000000000815260040180806020018281038252600f8152602001807f474c5847616d653a204c4f434b4544000000000000000000000000000000000081525060200191505060405180910390fd5b6000601660006101000a81548160ff021916908360ff160217905550610a9b611aa9565b15610b0e576040517f08c379a00000000000000000000000000000000000000000000000000000000081526004018080602001828103825260188152602001807f474c5847616d653a204e4f545f43414e5f52454345495645000000000000000081525060200191505060405180910390fd5b600073ffffffffffffffffffffffffffffffffffffffff168273ffffffffffffffffffffffffffffffffffffffff161415610bb1576040517f08c379a000000000000000000000000000000000000000000000000000000000815260040180806020018281038252601d8152602001807f474c5847616d653a20524543454956455f414444524553535f5a45524f00000081525060200191505060405180910390fd5b601060008373ffffffffffffffffffffffffffffffffffffffff1673ffffffffffffffffffffffffffffffffffffffff16815260200190815260200160002060009054906101000a900460ff1615610c71576040517f08c379a00000000000000000000000000000000000000000000000000000000081526004018080602001828103825260118152602001807f474c5847616d653a20524543454956454400000000000000000000000000000081525060200191505060405180910390fd5b600660159054906101000a900460ff16610cd6576040517f08c379a00000000000000000000000000000000000000000000000000000000081526004018080602001828103825260228152602001806131c16022913960400191505060405180910390fd5b6000600a54141580610ceb57506000600b5414155b610d5d576040517f08c379a00000000000000000000000000000000000000000000000000000000081526004018080602001828103825260138152602001807f474c5847616d653a204e4f424f44595f4245540000000000000000000000000081525060200191505060405180910390fd5b6000809050600960009054906101000a900460ff1615610e82576000600e60008573ffffffffffffffffffffffffffffffffffffffff1673ffffffffffffffffffffffffffffffffffffffff168152602001908152602001600020541415610e2d576040517f08c379a00000000000000000000000000000000000000000000000000000000081526004018080602001828103825260128152602001807f474c5847616d653a204e4f545f4558495354000000000000000000000000000081525060200191505060405180910390fd5b610e7b600e60008573ffffffffffffffffffffffffffffffffffffffff1673ffffffffffffffffffffffffffffffffffffffff16815260200190815260200160002054600a546015546127fc565b9050610f89565b6000600f60008573ffffffffffffffffffffffffffffffffffffffff1673ffffffffffffffffffffffffffffffffffffffff168152602001908152602001600020541415610f38576040517f08c379a00000000000000000000000000000000000000000000000000000000081526004018080602001828103825260128152602001807f474c5847616d653a204e4f545f4558495354000000000000000000000000000081525060200191505060405180910390fd5b610f86600f60008573ffffffffffffffffffffffffffffffffffffffff1673ffffffffffffffffffffffffffffffffffffffff16815260200190815260200160002054600b546015546127fc565b90505b601260009054906101000a900473ffffffffffffffffffffffffffffffffffffffff1673ffffffffffffffffffffffffffffffffffffffff168373ffffffffffffffffffffffffffffffffffffffff161415610ff757610ff46013548261284390919063ffffffff16565b90505b60008111156110865761102d600460009054906101000a900473ffffffffffffffffffffffffffffffffffffffff1684836128cb565b6001601060008573ffffffffffffffffffffffffffffffffffffffff1673ffffffffffffffffffffffffffffffffffffffff16815260200190815260200160002060006101000a81548160ff0219169083151502179055505b7f96c637b32857e341c944dc5ccd0915e732ef882cc0b34070d3c715f89cfff69d83604051808273ffffffffffffffffffffffffffffffffffffffff1673ffffffffffffffffffffffffffffffffffffffff16815260200191505060405180910390a160019150506001601660006101000a81548160ff021916908360ff160217905550919050565b600660149054906101000a900460ff1681565b600d5481565b600660009054906101000a900473ffffffffffffffffffffffffffffffffffffffff1681565b600460009054906101000a900473ffffffffffffffffffffffffffffffffffffffff1681565b60106020528060005260406000206000915054906101000a900460ff1681565b60085481565b60005481565b60006111b9600d54600c5461284390919063ffffffff16565b905090565b6000805443106111d157600190506111d6565b600090505b90565b60006001601660009054906101000a900460ff1660ff1614611263576040517f08c379a000000000000000000000000000000000000000000000000000000000815260040180806020018281038252600f8152602001807f474c5847616d653a204c4f434b4544000000000000000000000000000000000081525060200191505060405180910390fd5b6000601660006101000a81548160ff021916908360ff160217905550611287611a8c565b6112f9576040517f08c379a000000000000000000000000000000000000000000000000000000000815260040180806020018281038252600e8152602001807f456e643a206e6f7420656e64656400000000000000000000000000000000000081525060200191505060405180910390fd5b600660149054906101000a900460ff1661137b576040517f08c379a000000000000000000000000000000000000000000000000000000000815260040180806020018281038252601a8152602001807f474c5847616d653a204e4f545f4f4e5f434841494e5f47414d4500000000000081525060200191505060405180910390fd5b600660159054906101000a900460ff16156113e1576040517f08c379a000000000000000000000000000000000000000000000000000000000815260040180806020018281038252602181526020018061317c6021913960400191505060405180910390fd5b600854600760009054906101000a900473ffffffffffffffffffffffffffffffffffffffff1673ffffffffffffffffffffffffffffffffffffffff166318160ddd6040518163ffffffff1660e01b815260040160206040518083038186803b15801561144c57600080fd5b505afa158015611460573d6000803e3d6000fd5b505050506040513d602081101561147657600080fd5b8101908080519060200190929190505050106114ac576001600960006101000a81548160ff0219169083151502179055506114c8565b6000600960006101000a81548160ff0219169083151502179055505b6114d0612ac4565b6001600660156101000a81548160ff0219169083151502179055507fbe7f54e72ae083e2ce42f287bdd572a2c497ab588f9215719ed50557661ab4da60405160405180910390a1600190506001601660006101000a81548160ff021916908360ff16021790555090565b60115481565b600660159054906101000a900460ff1681565b600b5481565b600760009054906101000a900473ffffffffffffffffffffffffffffffffffffffff1681565b6000611589611aa9565b61159657600090506116cd565b6000600e60003373ffffffffffffffffffffffffffffffffffffffff1673ffffffffffffffffffffffffffffffffffffffff168152602001908152602001600020541180156115f15750600960009054906101000a900460ff165b156115ff57600190506116cd565b6000600f60003373ffffffffffffffffffffffffffffffffffffffff1673ffffffffffffffffffffffffffffffffffffffff1681526020019081526020016000205411801561165b5750600960009054906101000a900460ff16155b1561166957600190506116cd565b601260009054906101000a900473ffffffffffffffffffffffffffffffffffffffff1673ffffffffffffffffffffffffffffffffffffffff163373ffffffffffffffffffffffffffffffffffffffff1614156116c857600190506116cd565b600090505b90565b600a5481565b600960009054906101000a900460ff1681565b60006116f3611a8c565b611765576040517f08c379a000000000000000000000000000000000000000000000000000000000815260040180806020018281038252600e8152602001807f456e643a206e6f7420656e64656400000000000000000000000000000000000081525060200191505060405180910390fd5b73__CompoundHelper________________________63dc3b7c8b600660009054906101000a900473ffffffffffffffffffffffffffffffffffffffff166040518263ffffffff1660e01b8152600401808273ffffffffffffffffffffffffffffffffffffffff1673ffffffffffffffffffffffffffffffffffffffff16815260200191505060206040518083038186803b15801561180257600080fd5b505af4158015611816573d6000803e3d6000fd5b505050506040513d602081101561182c57600080fd5b8101908080519060200190929190505050905090565b60135481565b600260009054906101000a900473ffffffffffffffffffffffffffffffffffffffff1673ffffffffffffffffffffffffffffffffffffffff163373ffffffffffffffffffffffffffffffffffffffff161461190b576040517f08c379a00000000000000000000000000000000000000000000000000000000081526004018080602001828103825260128152602001807f474c5847616d653a20464f5242494444454e000000000000000000000000000081525060200191505060405180910390fd5b88600360006101000a81548173ffffffffffffffffffffffffffffffffffffffff021916908373ffffffffffffffffffffffffffffffffffffffff16021790555087600460006101000a81548173ffffffffffffffffffffffffffffffffffffffff021916908373ffffffffffffffffffffffffffffffffffffffff16021790555086600560006101000a81548173ffffffffffffffffffffffffffffffffffffffff021916908373ffffffffffffffffffffffffffffffffffffffff16021790555085600660006101000a81548173ffffffffffffffffffffffffffffffffffffffff021916908373ffffffffffffffffffffffffffffffffffffffff160217905550611a198585612cab565b82600660146101000a81548160ff02191690831515021790555081600760006101000a81548173ffffffffffffffffffffffffffffffffffffffff021916908373ffffffffffffffffffffffffffffffffffffffff16021790555080600881905550505050505050505050565b600c5481565b6000600154431115611aa15760019050611aa6565b600090505b90565b6000611ab3611a8c565b611ac05760009050611ae2565b600660159054906101000a900460ff16611add5760009050611ae2565b600190505b90565b60015481565b600260009054906101000a900473ffffffffffffffffffffffffffffffffffffffff1681565b60006001601660009054906101000a900460ff1660ff1614611b9b576040517f08c379a000000000000000000000000000000000000000000000000000000000815260040180806020018281038252600f8152602001807f474c5847616d653a204c4f434b4544000000000000000000000000000000000081525060200191505060405180910390fd5b6000601660006101000a81548160ff021916908360ff160217905550600360009054906101000a900473ffffffffffffffffffffffffffffffffffffffff1673ffffffffffffffffffffffffffffffffffffffff163373ffffffffffffffffffffffffffffffffffffffff1614611c7a576040517f08c379a00000000000000000000000000000000000000000000000000000000081526004018080602001828103825260128152602001807f474c5847616d653a20464f5242494444454e000000000000000000000000000081525060200191505060405180910390fd5b611c82611a8c565b611cf4576040517f08c379a000000000000000000000000000000000000000000000000000000000815260040180806020018281038252600e8152602001807f456e643a206e6f7420656e64656400000000000000000000000000000000000081525060200191505060405180910390fd5b600660149054906101000a900460ff1615611d77576040517f08c379a000000000000000000000000000000000000000000000000000000000815260040180806020018281038252601b8152602001807f474c5847616d653a204e4f545f4f46465f434841494e5f47414d45000000000081525060200191505060405180910390fd5b600660159054906101000a900460ff1615611ddd576040517f08c379a000000000000000000000000000000000000000000000000000000000815260040180806020018281038252602481526020018061319d6024913960400191505060405180910390fd5b60018260ff161480611df2575060028260ff16145b611e64576040517f08c379a000000000000000000000000000000000000000000000000000000000815260040180806020018281038252601c8152602001807f474c5847616d653a2067616d65526573756c74e4b88de59088e6b3950000000081525060200191505060405180910390fd5b60018260ff161415611e90576001600960006101000a81548160ff021916908315150217905550611eac565b6001600960006101000a81548160ff0219169083151502179055505b611eb4612ac4565b6001600660156101000a81548160ff0219169083151502179055507f0bea59c101d3ac28bd55906d7a058230e2c2eccced5f70a6012e1a248df9050282604051808260ff1660ff16815260200191505060405180910390a1600190506001601660006101000a81548160ff021916908360ff160217905550919050565b600381565b601260009054906101000a900473ffffffffffffffffffffffffffffffffffffffff1681565b600f6020528060005260406000206000915090505481565b60006001601660009054906101000a900460ff1660ff1614611ffe576040517f08c379a000000000000000000000000000000000000000000000000000000000815260040180806020018281038252600f8152602001807f474c5847616d653a204c4f434b4544000000000000000000000000000000000081525060200191505060405180910390fd5b6000601660006101000a81548160ff021916908360ff1602179055506120226111be565b15612095576040517f08c379a000000000000000000000000000000000000000000000000000000000815260040180806020018281038252600e8152602001807f53746172743a207374617274656400000000000000000000000000000000000081525060200191505060405180910390fd5b600360009054906101000a900473ffffffffffffffffffffffffffffffffffffffff1673ffffffffffffffffffffffffffffffffffffffff163373ffffffffffffffffffffffffffffffffffffffff1614612158576040517f08c379a00000000000000000000000000000000000000000000000000000000081526004018080602001828103825260128152602001807f474c5847616d653a20464f5242494444454e000000000000000000000000000081525060200191505060405180910390fd5b600073ffffffffffffffffffffffffffffffffffffffff168473ffffffffffffffffffffffffffffffffffffffff1614156121fb576040517f08c379a00000000000000000000000000000000000000000000000000000000081526004018080602001828103825260198152602001807f474c5847616d653a204245545f414444524553535f5a45524f0000000000000081525060200191505060405180910390fd5b60008211612271576040517f08c379a00000000000000000000000000000000000000000000000000000000081526004018080602001828103825260188152602001807f474c5847616d653a204245545f414d4f554e545f5a45524f000000000000000081525060200191505060405180910390fd5b82156124195761228c82600a5461284390919063ffffffff16565b600a819055506122a86001600c5461284390919063ffffffff16565b600c8190555061230082600e60008773ffffffffffffffffffffffffffffffffffffffff1673ffffffffffffffffffffffffffffffffffffffff1681526020019081526020016000205461284390919063ffffffff16565b600e60008673ffffffffffffffffffffffffffffffffffffffff1673ffffffffffffffffffffffffffffffffffffffff16815260200190815260200160002081905550601154600e60008673ffffffffffffffffffffffffffffffffffffffff1673ffffffffffffffffffffffffffffffffffffffff16815260200190815260200160002054111561241457600e60008573ffffffffffffffffffffffffffffffffffffffff1673ffffffffffffffffffffffffffffffffffffffff1681526020019081526020016000205460118190555083601260006101000a81548173ffffffffffffffffffffffffffffffffffffffff021916908373ffffffffffffffffffffffffffffffffffffffff1602179055505b6125b7565b61242e82600b5461284390919063ffffffff16565b600b8190555061244a6001600d5461284390919063ffffffff16565b600d819055506124a282600f60008773ffffffffffffffffffffffffffffffffffffffff1673ffffffffffffffffffffffffffffffffffffffff1681526020019081526020016000205461284390919063ffffffff16565b600f60008673ffffffffffffffffffffffffffffffffffffffff1673ffffffffffffffffffffffffffffffffffffffff16815260200190815260200160002081905550601154600f60008673ffffffffffffffffffffffffffffffffffffffff1673ffffffffffffffffffffffffffffffffffffffff1681526020019081526020016000205411156125b657600f60008573ffffffffffffffffffffffffffffffffffffffff1673ffffffffffffffffffffffffffffffffffffffff1681526020019081526020016000205460118190555083601260006101000a81548173ffffffffffffffffffffffffffffffffffffffff021916908373ffffffffffffffffffffffffffffffffffffffff1602179055505b5b73__CompoundHelper________________________630c0a769b600460009054906101000a900473ffffffffffffffffffffffffffffffffffffffff16600660009054906101000a900473ffffffffffffffffffffffffffffffffffffffff16856040518463ffffffff1660e01b8152600401808473ffffffffffffffffffffffffffffffffffffffff1673ffffffffffffffffffffffffffffffffffffffff1681526020018373ffffffffffffffffffffffffffffffffffffffff1673ffffffffffffffffffffffffffffffffffffffff168152602001828152602001935050505060206040518083038186803b1580156126b257600080fd5b505af41580156126c6573d6000803e3d6000fd5b505050506040513d60208110156126dc57600080fd5b8101908080519060200190929190505050507fb8385a203db1c9a53995e98892022cf36587e8ab2cf86e67e1be4bba4033f8c2848484604051808473ffffffffffffffffffffffffffffffffffffffff1673ffffffffffffffffffffffffffffffffffffffff16815260200183151515158152602001828152602001935050505060405180910390a1600190506001601660006101000a81548160ff021916908360ff1602179055509392505050565b600560009054906101000a900473ffffffffffffffffffffffffffffffffffffffff1681565b60155481565b60145481565b600e6020528060005260406000206000915090505481565b600360009054906101000a900473ffffffffffffffffffffffffffffffffffffffff1681565b600080612824846128168588612dd590919063ffffffff16565b612e5b90919063ffffffff16565b9050612839858261284390919063ffffffff16565b9150509392505050565b6000808284019050838110156128c1576040517f08c379a000000000000000000000000000000000000000000000000000000000815260040180806020018281038252601b8152602001807f536166654d6174683a206164646974696f6e206f766572666c6f77000000000081525060200191505060405180910390fd5b8091505092915050565b600060608473ffffffffffffffffffffffffffffffffffffffff1663a9059cbb8585604051602401808373ffffffffffffffffffffffffffffffffffffffff1673ffffffffffffffffffffffffffffffffffffffff168152602001828152602001925050506040516020818303038152906040529060e01b6020820180517bffffffffffffffffffffffffffffffffffffffffffffffffffffffff83818316178352505050506040518082805190602001908083835b602083106129a45780518252602082019150602081019050602083039250612981565b6001836020036101000a0380198251168184511680821785525050505050509050019150506000604051808303816000865af19150503d8060008114612a06576040519150601f19603f3d011682016040523d82523d6000602084013e612a0b565b606091505b5091509150818015612a4b5750600081511480612a4a5750808060200190516020811015612a3857600080fd5b81019080805190602001909291905050505b5b612abd576040517f08c379a000000000000000000000000000000000000000000000000000000000815260040180806020018281038252601b8152602001807f47616d6548656c7065723a205452414e534645525f4641494c4544000000000081525060200191505060405180910390fd5b5050505050565b600073__CompoundHelper________________________63bba06f27600460009054906101000a900473ffffffffffffffffffffffffffffffffffffffff16600660009054906101000a900473ffffffffffffffffffffffffffffffffffffffff166040518363ffffffff1660e01b8152600401808373ffffffffffffffffffffffffffffffffffffffff1673ffffffffffffffffffffffffffffffffffffffff1681526020018273ffffffffffffffffffffffffffffffffffffffff1673ffffffffffffffffffffffffffffffffffffffff1681526020019250505060206040518083038186803b158015612bb957600080fd5b505af4158015612bcd573d6000803e3d6000fd5b505050506040513d6020811015612be357600080fd5b810190808051906020019092919050505090506000612c0f600b54600a5461284390919063ffffffff16565b9050808210612c86576040517f08c379a000000000000000000000000000000000000000000000000000000000815260040180806020018281038252601b8152602001807f474c5847616d653a2046494e5f494e434f4d455f494e56414c4944000000000081525060200191505060405180910390fd5b612c998183612ea590919063ffffffff16565b601381905550612ca7612eef565b5050565b60008054148015612cbe57506000600154145b612d13576040517f08c379a00000000000000000000000000000000000000000000000000000000081526004018080602001828103825260278152602001806132266027913960400191505060405180910390fd5b808210612d6b576040517f08c379a00000000000000000000000000000000000000000000000000000000081526004018080602001828103825260228152602001806132046022913960400191505060405180910390fd5b438211612dc3576040517f08c379a00000000000000000000000000000000000000000000000000000000081526004018080602001828103825260228152602001806132046022913960400191505060405180910390fd5b81600081905550806001819055505050565b600080831415612de85760009050612e55565b6000828402905082848281612df957fe5b0414612e50576040517f08c379a00000000000000000000000000000000000000000000000000000000081526004018080602001828103825260218152602001806131e36021913960400191505060405180910390fd5b809150505b92915050565b6000612e9d83836040518060400160405280601a81526020017f536166654d6174683a206469766973696f6e206279207a65726f000000000000815250612ff5565b905092915050565b6000612ee783836040518060400160405280601e81526020017f536166654d6174683a207375627472616374696f6e206f766572666c6f7700008152506130bb565b905092915050565b600960009054906101000a900460ff1615612f5557612f2d6064612f1f6003600b54612dd590919063ffffffff16565b612e5b90919063ffffffff16565b601481905550612f4a601454600b54612ea590919063ffffffff16565b601581905550612fa2565b612f7e6064612f706003600a54612dd590919063ffffffff16565b612e5b90919063ffffffff16565b601481905550612f9b601454600a54612ea590919063ffffffff16565b6015819055505b612ff3600460009054906101000a900473ffffffffffffffffffffffffffffffffffffffff16600560009054906101000a900473ffffffffffffffffffffffffffffffffffffffff166014546128cb565b565b600080831182906130a1576040517f08c379a00000000000000000000000000000000000000000000000000000000081526004018080602001828103825283818151815260200191508051906020019080838360005b8381101561306657808201518184015260208101905061304b565b50505050905090810190601f1680156130935780820380516001836020036101000a031916815260200191505b509250505060405180910390fd5b5060008385816130ad57fe5b049050809150509392505050565b6000838311158290613168576040517f08c379a00000000000000000000000000000000000000000000000000000000081526004018080602001828103825283818151815260200191508051906020019080838360005b8381101561312d578082015181840152602081019050613112565b50505050905090810190601f16801561315a5780820380516001836020036101000a031916815260200191505b509250505060405180910390fd5b506000838503905080915050939250505056fe474c5847616d653a2047414d455f524553554c545f414c52454144595f4f50454e474c5847616d653a2047414d455f524553554c545f414c52454144595f4f5241434c4544474c5847616d653a2047414d455f4e4f545f53544152545f4745545f494e434f4d45536166654d6174683a206d756c7469706c69636174696f6e206f766572666c6f77474c584c6966656379636c653a20424c4f434b5f4e554d4245525f494e56414c4944474c584c6966656379636c653a20424c4f434b5f4e554d4245525f414c52454144595f494e4954a264697066735822122043efe4d0feed760dad22f3f2889ac0068021996c32eeab3a39ac6265863d97d364736f6c634300060200334f776e61626c653a206e6577206f776e657220697320746865207a65726f2061646472657373474c58466163746f72793a204e45575f444953434f554e545f43414e545f4c455353a26469706673582212202b90ef004d558c113df577b844742efddb547ee9676e9a55373583beb1fbf68964736f6c63430006020033",
  "source": "pragma solidity ^0.6.0;\n\nimport \"./interface/IGLXFactory.sol\";\nimport \"./GLXGame.sol\";\nimport \"./GLXToken.sol\";\n\ncontract GLXFactory is Ownable {\n\n    //GLXGame => DAI\n    mapping(address => address) public getGameExtToken;\n    //DAI  => gDAI\n    mapping(address => address) public getIntToken;\n    //gDAI  => liquidPool\n    mapping(address => address) public getLiquidPool;\n    //gDAI  => mintDiscount;\n    mapping(address => uint256) public getMintDiscount;\n\n    //\n    function createGame(\n        address router,\n        address extToken,\n        address intToken,\n        address finToken,\n        address liquidPool,\n        uint startBlockNumber,\n        uint endBlockNumber,\n        bool isOnChainGame,\n        address gameObjectToken,\n        uint256 gameObjectTokenSupply\n    ) external onlyOwner returns (address game) {\n\n        require(extToken != address(0), 'GLXFactory: TOKEN_INVALID');\n        require(intToken != address(0), 'GLXFactory: TOKEN_INVALID');\n\n        game = _createGame(router, extToken, intToken, finToken, startBlockNumber, endBlockNumber, isOnChainGame, gameObjectToken, gameObjectTokenSupply);\n        getGameExtToken[game] = extToken;\n\n        if (getIntToken[extToken] == address(0)) {\n            getIntToken[extToken] = intToken;\n        }\n\n        if (getLiquidPool[intToken] == address(0)) {\n            getLiquidPool[intToken] = liquidPool;\n            getMintDiscount[intToken] = uint256(1);\n        }\n\n        emit Game(game);\n        return game;\n    }\n\n    event Game(address a);\n\n    function _createGame(\n        address router,\n        address extToken,\n        address intToken,\n        address finToken,\n        uint startBlockNumber,\n        uint endBlockNumber,\n        bool isOnChainGame,\n        address gameObjectToken,\n        uint256 gameObjectTokenSupply\n    ) private returns (address game) {\n\n        //\n        bytes memory bytecode = type(GLXGame).creationCode;\n        bytes32 salt = keccak256(abi.encodePacked(startBlockNumber));\n        assembly {\n            game := create2(0, add(bytecode, 32), mload(bytecode), salt)\n        }\n\n        //\n        IGLXGame(game).initialize(router, extToken, intToken, finToken, startBlockNumber, endBlockNumber, isOnChainGame, gameObjectToken, gameObjectTokenSupply);\n\n        return game;\n    }\n\n    //epoch\n    function setMintDiscount(address intToken, uint256 mintDiscount) external onlyOwner returns (bool) {\n        require(mintDiscount > 0, \"GLXFactory: MINT_DISCOUNT_ZERO\");\n        require(intToken != address(0), \"GLXFactory: INT_TOKEN_INVALID\");\n        require(getLiquidPool[intToken] != address(0), \"GLXFactory: INT_TOKEN_NOT_EXIST\");\n        require(getMintDiscount[intToken] < mintDiscount, \"GLXFactory: NEW_DISCOUNT_CANT_LESS\");\n\n        getMintDiscount[intToken] = mintDiscount;\n\n        return true;\n    }\n}\n",
  "sourcePath": "/Users/xuyulin/code/xuyulinnn/glxdefi/glxdefi-core/contracts/GLXFactory.sol",
  "compiler": {
    "name": "solc",
    "version": "0.6.2+commit.bacdbe57.Emscripten.clang"
  },
  "schemaVersion": "3.2.3",
  "updatedAt": "2020-08-08T12:44:46.922Z",
  "networkType": "ethereum",
  "devdoc": {
    "methods": {
      "owner()": {
        "details": "Returns the address of the current owner."
      },
      "renounceOwnership()": {
        "details": "Leaves the contract without owner. It will not be possible to call `onlyOwner` functions anymore. Can only be called by the current owner.     * NOTE: Renouncing ownership will leave the contract without an owner, thereby removing any functionality that is only available to the owner."
      },
      "transferOwnership(address)": {
        "details": "Transfers ownership of the contract to a new account (`newOwner`). Can only be called by the current owner."
      }
    }
  },
  "userdoc": {
    "methods": {}
  }
}