{
  "contractName": "GLXGame",
  "abi": [
    {
      "inputs": [],
      "stateMutability": "nonpayable",
      "type": "constructor"
    },
    {
      "anonymous": false,
      "inputs": [
        {
          "indexed": false,
          "internalType": "address",
          "name": "account",
          "type": "address"
        },
        {
          "indexed": false,
          "internalType": "bool",
          "name": "direction",
          "type": "bool"
        },
        {
          "indexed": false,
          "internalType": "uint256",
          "name": "amount",
          "type": "uint256"
        }
      ],
      "name": "Bet",
      "type": "event"
    },
    {
      "anonymous": false,
      "inputs": [
        {
          "indexed": false,
          "internalType": "address",
          "name": "account",
          "type": "address"
        }
      ],
      "name": "ReceiveIncome",
      "type": "event"
    },
    {
      "anonymous": false,
      "inputs": [],
      "name": "UpdateGameResult",
      "type": "event"
    },
    {
      "anonymous": false,
      "inputs": [
        {
          "indexed": false,
          "internalType": "uint8",
          "name": "_gameResult",
          "type": "uint8"
        }
      ],
      "name": "UpdateGameResultByOracle",
      "type": "event"
    },
    {
      "inputs": [],
      "name": "SHARE_HOLDER_RAKE_RATE",
      "outputs": [
        {
          "internalType": "uint256",
          "name": "",
          "type": "uint256"
        }
      ],
      "stateMutability": "view",
      "type": "function"
    },
    {
      "inputs": [],
      "name": "endBlockNumber",
      "outputs": [
        {
          "internalType": "uint256",
          "name": "",
          "type": "uint256"
        }
      ],
      "stateMutability": "view",
      "type": "function"
    },
    {
      "inputs": [],
      "name": "extToken",
      "outputs": [
        {
          "internalType": "address",
          "name": "",
          "type": "address"
        }
      ],
      "stateMutability": "view",
      "type": "function"
    },
    {
      "inputs": [],
      "name": "factory",
      "outputs": [
        {
          "internalType": "address",
          "name": "",
          "type": "address"
        }
      ],
      "stateMutability": "view",
      "type": "function"
    },
    {
      "inputs": [
        {
          "internalType": "address",
          "name": "",
          "type": "address"
        }
      ],
      "name": "falseAmountMap",
      "outputs": [
        {
          "internalType": "uint256",
          "name": "",
          "type": "uint256"
        }
      ],
      "stateMutability": "view",
      "type": "function"
    },
    {
      "inputs": [],
      "name": "falseTotalAmount",
      "outputs": [
        {
          "internalType": "uint256",
          "name": "",
          "type": "uint256"
        }
      ],
      "stateMutability": "view",
      "type": "function"
    },
    {
      "inputs": [],
      "name": "falseTotalCount",
      "outputs": [
        {
          "internalType": "uint256",
          "name": "",
          "type": "uint256"
        }
      ],
      "stateMutability": "view",
      "type": "function"
    },
    {
      "inputs": [],
      "name": "finToken",
      "outputs": [
        {
          "internalType": "address",
          "name": "",
          "type": "address"
        }
      ],
      "stateMutability": "view",
      "type": "function"
    },
    {
      "inputs": [],
      "name": "gameObjectToken",
      "outputs": [
        {
          "internalType": "address",
          "name": "",
          "type": "address"
        }
      ],
      "stateMutability": "view",
      "type": "function"
    },
    {
      "inputs": [],
      "name": "gameObjectTokenSupply",
      "outputs": [
        {
          "internalType": "uint256",
          "name": "",
          "type": "uint256"
        }
      ],
      "stateMutability": "view",
      "type": "function"
    },
    {
      "inputs": [],
      "name": "gameResult",
      "outputs": [
        {
          "internalType": "bool",
          "name": "",
          "type": "bool"
        }
      ],
      "stateMutability": "view",
      "type": "function"
    },
    {
      "inputs": [],
      "name": "intToken",
      "outputs": [
        {
          "internalType": "address",
          "name": "",
          "type": "address"
        }
      ],
      "stateMutability": "view",
      "type": "function"
    },
    {
      "inputs": [],
      "name": "interestIncome",
      "outputs": [
        {
          "internalType": "uint256",
          "name": "",
          "type": "uint256"
        }
      ],
      "stateMutability": "view",
      "type": "function"
    },
    {
      "inputs": [],
      "name": "isEnded",
      "outputs": [
        {
          "internalType": "bool",
          "name": "",
          "type": "bool"
        }
      ],
      "stateMutability": "view",
      "type": "function"
    },
    {
      "inputs": [],
      "name": "isGameResultOpen",
      "outputs": [
        {
          "internalType": "bool",
          "name": "",
          "type": "bool"
        }
      ],
      "stateMutability": "view",
      "type": "function"
    },
    {
      "inputs": [],
      "name": "isOnChainGame",
      "outputs": [
        {
          "internalType": "bool",
          "name": "",
          "type": "bool"
        }
      ],
      "stateMutability": "view",
      "type": "function"
    },
    {
      "inputs": [
        {
          "internalType": "address",
          "name": "",
          "type": "address"
        }
      ],
      "name": "isReceivedMap",
      "outputs": [
        {
          "internalType": "bool",
          "name": "",
          "type": "bool"
        }
      ],
      "stateMutability": "view",
      "type": "function"
    },
    {
      "inputs": [],
      "name": "isStarted",
      "outputs": [
        {
          "internalType": "bool",
          "name": "",
          "type": "bool"
        }
      ],
      "stateMutability": "view",
      "type": "function"
    },
    {
      "inputs": [],
      "name": "maxAmount",
      "outputs": [
        {
          "internalType": "uint256",
          "name": "",
          "type": "uint256"
        }
      ],
      "stateMutability": "view",
      "type": "function"
    },
    {
      "inputs": [],
      "name": "maxAmountAccount",
      "outputs": [
        {
          "internalType": "address",
          "name": "",
          "type": "address"
        }
      ],
      "stateMutability": "view",
      "type": "function"
    },
    {
      "inputs": [],
      "name": "router",
      "outputs": [
        {
          "internalType": "address",
          "name": "",
          "type": "address"
        }
      ],
      "stateMutability": "view",
      "type": "function"
    },
    {
      "inputs": [],
      "name": "shareHolderProfit",
      "outputs": [
        {
          "internalType": "uint256",
          "name": "",
          "type": "uint256"
        }
      ],
      "stateMutability": "view",
      "type": "function"
    },
    {
      "inputs": [],
      "name": "startBlockNumber",
      "outputs": [
        {
          "internalType": "uint256",
          "name": "",
          "type": "uint256"
        }
      ],
      "stateMutability": "view",
      "type": "function"
    },
    {
      "inputs": [
        {
          "internalType": "address",
          "name": "",
          "type": "address"
        }
      ],
      "name": "trueAmountMap",
      "outputs": [
        {
          "internalType": "uint256",
          "name": "",
          "type": "uint256"
        }
      ],
      "stateMutability": "view",
      "type": "function"
    },
    {
      "inputs": [],
      "name": "trueTotalAmount",
      "outputs": [
        {
          "internalType": "uint256",
          "name": "",
          "type": "uint256"
        }
      ],
      "stateMutability": "view",
      "type": "function"
    },
    {
      "inputs": [],
      "name": "trueTotalCount",
      "outputs": [
        {
          "internalType": "uint256",
          "name": "",
          "type": "uint256"
        }
      ],
      "stateMutability": "view",
      "type": "function"
    },
    {
      "inputs": [],
      "name": "winPrincipalProfit",
      "outputs": [
        {
          "internalType": "uint256",
          "name": "",
          "type": "uint256"
        }
      ],
      "stateMutability": "view",
      "type": "function"
    },
    {
      "inputs": [
        {
          "internalType": "address",
          "name": "_router",
          "type": "address"
        },
        {
          "internalType": "address",
          "name": "_extToken",
          "type": "address"
        },
        {
          "internalType": "address",
          "name": "_intToken",
          "type": "address"
        },
        {
          "internalType": "address",
          "name": "_finToken",
          "type": "address"
        },
        {
          "internalType": "uint256",
          "name": "_startBlockNumber",
          "type": "uint256"
        },
        {
          "internalType": "uint256",
          "name": "_endBlockNumber",
          "type": "uint256"
        },
        {
          "internalType": "bool",
          "name": "_isOnChainGame",
          "type": "bool"
        },
        {
          "internalType": "address",
          "name": "_gameObjectToken",
          "type": "address"
        },
        {
          "internalType": "uint256",
          "name": "_gameObjectTokenSupply",
          "type": "uint256"
        }
      ],
      "name": "initialize",
      "outputs": [],
      "stateMutability": "nonpayable",
      "type": "function"
    },
    {
      "inputs": [],
      "name": "isCanReceive",
      "outputs": [
        {
          "internalType": "bool",
          "name": "",
          "type": "bool"
        }
      ],
      "stateMutability": "view",
      "type": "function"
    },
    {
      "inputs": [],
      "name": "isExistIncomeNeedReceive",
      "outputs": [
        {
          "internalType": "bool",
          "name": "",
          "type": "bool"
        }
      ],
      "stateMutability": "view",
      "type": "function"
    },
    {
      "inputs": [
        {
          "internalType": "address",
          "name": "account",
          "type": "address"
        },
        {
          "internalType": "bool",
          "name": "direction",
          "type": "bool"
        },
        {
          "internalType": "uint256",
          "name": "amount",
          "type": "uint256"
        }
      ],
      "name": "bet",
      "outputs": [
        {
          "internalType": "bool",
          "name": "",
          "type": "bool"
        }
      ],
      "stateMutability": "nonpayable",
      "type": "function"
    },
    {
      "inputs": [
        {
          "internalType": "address",
          "name": "_account",
          "type": "address"
        }
      ],
      "name": "receiveIncome",
      "outputs": [
        {
          "internalType": "bool",
          "name": "",
          "type": "bool"
        }
      ],
      "stateMutability": "nonpayable",
      "type": "function"
    },
    {
      "inputs": [],
      "name": "updateGameResult",
      "outputs": [
        {
          "internalType": "bool",
          "name": "",
          "type": "bool"
        }
      ],
      "stateMutability": "nonpayable",
      "type": "function"
    },
    {
      "inputs": [
        {
          "internalType": "uint8",
          "name": "_gameResult",
          "type": "uint8"
        }
      ],
      "name": "updateGameResultByOracle",
      "outputs": [
        {
          "internalType": "bool",
          "name": "",
          "type": "bool"
        }
      ],
      "stateMutability": "nonpayable",
      "type": "function"
    },
    {
      "inputs": [],
      "name": "getApr",
      "outputs": [
        {
          "internalType": "uint256",
          "name": "",
          "type": "uint256"
        }
      ],
      "stateMutability": "nonpayable",
      "type": "function"
    },
    {
      "inputs": [],
      "name": "getCurUserCount",
      "outputs": [
        {
          "internalType": "uint256",
          "name": "",
          "type": "uint256"
        }
      ],
      "stateMutability": "view",
      "type": "function"
    }
  ],
  "bytecode": "0x60806040526001601660006101000a81548160ff021916908360ff16021790555034801561002c57600080fd5b5033600260006101000a81548173ffffffffffffffffffffffffffffffffffffffff021916908373ffffffffffffffffffffffffffffffffffffffff1602179055506132828061007d6000396000f3fe608060405234801561001057600080fd5b506004361061021c5760003560e01c8063845bc80411610125578063d0c122d2116100ad578063ea0610381161007c578063ea061038146108c5578063ec4bbf771461090f578063ef7128fe1461092d578063f5da8b821461094b578063f887ea40146109a35761021c565b8063d0c122d214610793578063d84ce2d9146107b1578063e30fd440146107fb578063e43cceb6146108535761021c565b8063a4fd6f56116100f4578063a4fd6f561461069e578063a8f8d9df146106c0578063b4999e85146106e2578063c45a015514610700578063caa9aa701461074a5761021c565b8063845bc804146105555780638b6707b4146105735780638f47ac7114610591578063a4104bc7146106805761021c565b8063544736e6116101a8578063605ee8eb11610177578063605ee8eb1461048b578063606c7db0146104a9578063631135c9146104f357806369ee9fee146105155780637152f800146105335761021c565b8063544736e6146104075780635d2ad4e8146104295780635f48f3931461044b5780636007b239146104695761021c565b80633bb51ee4116101ef5780633bb51ee4146103075780633cb7e012146103515780633d83e5d7146103ad578063498a4c2d146103cb5780634d830d6f146103e95761021c565b80630145584b146102215780630b246c541461027d578063143c24de1461029f5780631df4111b146102bd575b600080fd5b6102636004803603602081101561023757600080fd5b81019080803573ffffffffffffffffffffffffffffffffffffffff1690602001909291905050506109ed565b604051808215151515815260200191505060405180910390f35b61028561110f565b604051808215151515815260200191505060405180910390f35b6102a7611122565b6040518082815260200191505060405180910390f35b6102c5611128565b604051808273ffffffffffffffffffffffffffffffffffffffff1673ffffffffffffffffffffffffffffffffffffffff16815260200191505060405180910390f35b61030f61114e565b604051808273ffffffffffffffffffffffffffffffffffffffff1673ffffffffffffffffffffffffffffffffffffffff16815260200191505060405180910390f35b6103936004803603602081101561036757600080fd5b81019080803573ffffffffffffffffffffffffffffffffffffffff169060200190929190505050611174565b604051808215151515815260200191505060405180910390f35b6103b5611194565b6040518082815260200191505060405180910390f35b6103d361119a565b6040518082815260200191505060405180910390f35b6103f16111a0565b6040518082815260200191505060405180910390f35b61040f6111be565b604051808215151515815260200191505060405180910390f35b6104316111d9565b604051808215151515815260200191505060405180910390f35b61045361153a565b6040518082815260200191505060405180910390f35b610471611540565b604051808215151515815260200191505060405180910390f35b610493611553565b6040518082815260200191505060405180910390f35b6104b1611559565b604051808273ffffffffffffffffffffffffffffffffffffffff1673ffffffffffffffffffffffffffffffffffffffff16815260200191505060405180910390f35b6104fb61157f565b604051808215151515815260200191505060405180910390f35b61051d6116d0565b6040518082815260200191505060405180910390f35b61053b6116d6565b604051808215151515815260200191505060405180910390f35b61055d6116e9565b6040518082815260200191505060405180910390f35b61057b611842565b6040518082815260200191505060405180910390f35b61067e60048036036101208110156105a857600080fd5b81019080803573ffffffffffffffffffffffffffffffffffffffff169060200190929190803573ffffffffffffffffffffffffffffffffffffffff169060200190929190803573ffffffffffffffffffffffffffffffffffffffff169060200190929190803573ffffffffffffffffffffffffffffffffffffffff1690602001909291908035906020019092919080359060200190929190803515159060200190929190803573ffffffffffffffffffffffffffffffffffffffff16906020019092919080359060200190929190505050611848565b005b610688611a86565b6040518082815260200191505060405180910390f35b6106a6611a8c565b604051808215151515815260200191505060405180910390f35b6106c8611aa9565b604051808215151515815260200191505060405180910390f35b6106ea611ae5565b6040518082815260200191505060405180910390f35b610708611aeb565b604051808273ffffffffffffffffffffffffffffffffffffffff1673ffffffffffffffffffffffffffffffffffffffff16815260200191505060405180910390f35b6107796004803603602081101561076057600080fd5b81019080803560ff169060200190929190505050611b11565b604051808215151515815260200191505060405180910390f35b61079b611f31565b6040518082815260200191505060405180910390f35b6107b9611f36565b604051808273ffffffffffffffffffffffffffffffffffffffff1673ffffffffffffffffffffffffffffffffffffffff16815260200191505060405180910390f35b61083d6004803603602081101561081157600080fd5b81019080803573ffffffffffffffffffffffffffffffffffffffff169060200190929190505050611f5c565b6040518082815260200191505060405180910390f35b6108ab6004803603606081101561086957600080fd5b81019080803573ffffffffffffffffffffffffffffffffffffffff16906020019092919080351515906020019092919080359060200190929190505050611f74565b604051808215151515815260200191505060405180910390f35b6108cd61278c565b604051808273ffffffffffffffffffffffffffffffffffffffff1673ffffffffffffffffffffffffffffffffffffffff16815260200191505060405180910390f35b6109176127b2565b6040518082815260200191505060405180910390f35b6109356127b8565b6040518082815260200191505060405180910390f35b61098d6004803603602081101561096157600080fd5b81019080803573ffffffffffffffffffffffffffffffffffffffff1690602001909291905050506127be565b6040518082815260200191505060405180910390f35b6109ab6127d6565b604051808273ffffffffffffffffffffffffffffffffffffffff1673ffffffffffffffffffffffffffffffffffffffff16815260200191505060405180910390f35b60006001601660009054906101000a900460ff1660ff1614610a77576040517f08c379a000000000000000000000000000000000000000000000000000000000815260040180806020018281038252600f8152602001807f474c5847616d653a204c4f434b4544000000000000000000000000000000000081525060200191505060405180910390fd5b6000601660006101000a81548160ff021916908360ff160217905550610a9b611aa9565b15610b0e576040517f08c379a00000000000000000000000000000000000000000000000000000000081526004018080602001828103825260188152602001807f474c5847616d653a204e4f545f43414e5f52454345495645000000000000000081525060200191505060405180910390fd5b600073ffffffffffffffffffffffffffffffffffffffff168273ffffffffffffffffffffffffffffffffffffffff161415610bb1576040517f08c379a000000000000000000000000000000000000000000000000000000000815260040180806020018281038252601d8152602001807f474c5847616d653a20524543454956455f414444524553535f5a45524f00000081525060200191505060405180910390fd5b601060008373ffffffffffffffffffffffffffffffffffffffff1673ffffffffffffffffffffffffffffffffffffffff16815260200190815260200160002060009054906101000a900460ff1615610c71576040517f08c379a00000000000000000000000000000000000000000000000000000000081526004018080602001828103825260118152602001807f474c5847616d653a20524543454956454400000000000000000000000000000081525060200191505060405180910390fd5b600660159054906101000a900460ff16610cd6576040517f08c379a00000000000000000000000000000000000000000000000000000000081526004018080602001828103825260228152602001806131c16022913960400191505060405180910390fd5b6000600a54141580610ceb57506000600b5414155b610d5d576040517f08c379a00000000000000000000000000000000000000000000000000000000081526004018080602001828103825260138152602001807f474c5847616d653a204e4f424f44595f4245540000000000000000000000000081525060200191505060405180910390fd5b6000809050600960009054906101000a900460ff1615610e82576000600e60008573ffffffffffffffffffffffffffffffffffffffff1673ffffffffffffffffffffffffffffffffffffffff168152602001908152602001600020541415610e2d576040517f08c379a00000000000000000000000000000000000000000000000000000000081526004018080602001828103825260128152602001807f474c5847616d653a204e4f545f4558495354000000000000000000000000000081525060200191505060405180910390fd5b610e7b600e60008573ffffffffffffffffffffffffffffffffffffffff1673ffffffffffffffffffffffffffffffffffffffff16815260200190815260200160002054600a546015546127fc565b9050610f89565b6000600f60008573ffffffffffffffffffffffffffffffffffffffff1673ffffffffffffffffffffffffffffffffffffffff168152602001908152602001600020541415610f38576040517f08c379a00000000000000000000000000000000000000000000000000000000081526004018080602001828103825260128152602001807f474c5847616d653a204e4f545f4558495354000000000000000000000000000081525060200191505060405180910390fd5b610f86600f60008573ffffffffffffffffffffffffffffffffffffffff1673ffffffffffffffffffffffffffffffffffffffff16815260200190815260200160002054600b546015546127fc565b90505b601260009054906101000a900473ffffffffffffffffffffffffffffffffffffffff1673ffffffffffffffffffffffffffffffffffffffff168373ffffffffffffffffffffffffffffffffffffffff161415610ff757610ff46013548261284390919063ffffffff16565b90505b60008111156110865761102d600460009054906101000a900473ffffffffffffffffffffffffffffffffffffffff1684836128cb565b6001601060008573ffffffffffffffffffffffffffffffffffffffff1673ffffffffffffffffffffffffffffffffffffffff16815260200190815260200160002060006101000a81548160ff0219169083151502179055505b7f96c637b32857e341c944dc5ccd0915e732ef882cc0b34070d3c715f89cfff69d83604051808273ffffffffffffffffffffffffffffffffffffffff1673ffffffffffffffffffffffffffffffffffffffff16815260200191505060405180910390a160019150506001601660006101000a81548160ff021916908360ff160217905550919050565b600660149054906101000a900460ff1681565b600d5481565b600660009054906101000a900473ffffffffffffffffffffffffffffffffffffffff1681565b600460009054906101000a900473ffffffffffffffffffffffffffffffffffffffff1681565b60106020528060005260406000206000915054906101000a900460ff1681565b60085481565b60005481565b60006111b9600d54600c5461284390919063ffffffff16565b905090565b6000805443106111d157600190506111d6565b600090505b90565b60006001601660009054906101000a900460ff1660ff1614611263576040517f08c379a000000000000000000000000000000000000000000000000000000000815260040180806020018281038252600f8152602001807f474c5847616d653a204c4f434b4544000000000000000000000000000000000081525060200191505060405180910390fd5b6000601660006101000a81548160ff021916908360ff160217905550611287611a8c565b6112f9576040517f08c379a000000000000000000000000000000000000000000000000000000000815260040180806020018281038252600e8152602001807f456e643a206e6f7420656e64656400000000000000000000000000000000000081525060200191505060405180910390fd5b600660149054906101000a900460ff1661137b576040517f08c379a000000000000000000000000000000000000000000000000000000000815260040180806020018281038252601a8152602001807f474c5847616d653a204e4f545f4f4e5f434841494e5f47414d4500000000000081525060200191505060405180910390fd5b600660159054906101000a900460ff16156113e1576040517f08c379a000000000000000000000000000000000000000000000000000000000815260040180806020018281038252602181526020018061317c6021913960400191505060405180910390fd5b600854600760009054906101000a900473ffffffffffffffffffffffffffffffffffffffff1673ffffffffffffffffffffffffffffffffffffffff166318160ddd6040518163ffffffff1660e01b815260040160206040518083038186803b15801561144c57600080fd5b505afa158015611460573d6000803e3d6000fd5b505050506040513d602081101561147657600080fd5b8101908080519060200190929190505050106114ac576001600960006101000a81548160ff0219169083151502179055506114c8565b6000600960006101000a81548160ff0219169083151502179055505b6114d0612ac4565b6001600660156101000a81548160ff0219169083151502179055507fbe7f54e72ae083e2ce42f287bdd572a2c497ab588f9215719ed50557661ab4da60405160405180910390a1600190506001601660006101000a81548160ff021916908360ff16021790555090565b60115481565b600660159054906101000a900460ff1681565b600b5481565b600760009054906101000a900473ffffffffffffffffffffffffffffffffffffffff1681565b6000611589611aa9565b61159657600090506116cd565b6000600e60003373ffffffffffffffffffffffffffffffffffffffff1673ffffffffffffffffffffffffffffffffffffffff168152602001908152602001600020541180156115f15750600960009054906101000a900460ff165b156115ff57600190506116cd565b6000600f60003373ffffffffffffffffffffffffffffffffffffffff1673ffffffffffffffffffffffffffffffffffffffff1681526020019081526020016000205411801561165b5750600960009054906101000a900460ff16155b1561166957600190506116cd565b601260009054906101000a900473ffffffffffffffffffffffffffffffffffffffff1673ffffffffffffffffffffffffffffffffffffffff163373ffffffffffffffffffffffffffffffffffffffff1614156116c857600190506116cd565b600090505b90565b600a5481565b600960009054906101000a900460ff1681565b60006116f3611a8c565b611765576040517f08c379a000000000000000000000000000000000000000000000000000000000815260040180806020018281038252600e8152602001807f456e643a206e6f7420656e64656400000000000000000000000000000000000081525060200191505060405180910390fd5b73__CompoundHelper________________________63dc3b7c8b600660009054906101000a900473ffffffffffffffffffffffffffffffffffffffff166040518263ffffffff1660e01b8152600401808273ffffffffffffffffffffffffffffffffffffffff1673ffffffffffffffffffffffffffffffffffffffff16815260200191505060206040518083038186803b15801561180257600080fd5b505af4158015611816573d6000803e3d6000fd5b505050506040513d602081101561182c57600080fd5b8101908080519060200190929190505050905090565b60135481565b600260009054906101000a900473ffffffffffffffffffffffffffffffffffffffff1673ffffffffffffffffffffffffffffffffffffffff163373ffffffffffffffffffffffffffffffffffffffff161461190b576040517f08c379a00000000000000000000000000000000000000000000000000000000081526004018080602001828103825260128152602001807f474c5847616d653a20464f5242494444454e000000000000000000000000000081525060200191505060405180910390fd5b88600360006101000a81548173ffffffffffffffffffffffffffffffffffffffff021916908373ffffffffffffffffffffffffffffffffffffffff16021790555087600460006101000a81548173ffffffffffffffffffffffffffffffffffffffff021916908373ffffffffffffffffffffffffffffffffffffffff16021790555086600560006101000a81548173ffffffffffffffffffffffffffffffffffffffff021916908373ffffffffffffffffffffffffffffffffffffffff16021790555085600660006101000a81548173ffffffffffffffffffffffffffffffffffffffff021916908373ffffffffffffffffffffffffffffffffffffffff160217905550611a198585612cab565b82600660146101000a81548160ff02191690831515021790555081600760006101000a81548173ffffffffffffffffffffffffffffffffffffffff021916908373ffffffffffffffffffffffffffffffffffffffff16021790555080600881905550505050505050505050565b600c5481565b6000600154431115611aa15760019050611aa6565b600090505b90565b6000611ab3611a8c565b611ac05760009050611ae2565b600660159054906101000a900460ff16611add5760009050611ae2565b600190505b90565b60015481565b600260009054906101000a900473ffffffffffffffffffffffffffffffffffffffff1681565b60006001601660009054906101000a900460ff1660ff1614611b9b576040517f08c379a000000000000000000000000000000000000000000000000000000000815260040180806020018281038252600f8152602001807f474c5847616d653a204c4f434b4544000000000000000000000000000000000081525060200191505060405180910390fd5b6000601660006101000a81548160ff021916908360ff160217905550600360009054906101000a900473ffffffffffffffffffffffffffffffffffffffff1673ffffffffffffffffffffffffffffffffffffffff163373ffffffffffffffffffffffffffffffffffffffff1614611c7a576040517f08c379a00000000000000000000000000000000000000000000000000000000081526004018080602001828103825260128152602001807f474c5847616d653a20464f5242494444454e000000000000000000000000000081525060200191505060405180910390fd5b611c82611a8c565b611cf4576040517f08c379a000000000000000000000000000000000000000000000000000000000815260040180806020018281038252600e8152602001807f456e643a206e6f7420656e64656400000000000000000000000000000000000081525060200191505060405180910390fd5b600660149054906101000a900460ff1615611d77576040517f08c379a000000000000000000000000000000000000000000000000000000000815260040180806020018281038252601b8152602001807f474c5847616d653a204e4f545f4f46465f434841494e5f47414d45000000000081525060200191505060405180910390fd5b600660159054906101000a900460ff1615611ddd576040517f08c379a000000000000000000000000000000000000000000000000000000000815260040180806020018281038252602481526020018061319d6024913960400191505060405180910390fd5b60018260ff161480611df2575060028260ff16145b611e64576040517f08c379a000000000000000000000000000000000000000000000000000000000815260040180806020018281038252601c8152602001807f474c5847616d653a2067616d65526573756c74e4b88de59088e6b3950000000081525060200191505060405180910390fd5b60018260ff161415611e90576001600960006101000a81548160ff021916908315150217905550611eac565b6001600960006101000a81548160ff0219169083151502179055505b611eb4612ac4565b6001600660156101000a81548160ff0219169083151502179055507f0bea59c101d3ac28bd55906d7a058230e2c2eccced5f70a6012e1a248df9050282604051808260ff1660ff16815260200191505060405180910390a1600190506001601660006101000a81548160ff021916908360ff160217905550919050565b600381565b601260009054906101000a900473ffffffffffffffffffffffffffffffffffffffff1681565b600f6020528060005260406000206000915090505481565b60006001601660009054906101000a900460ff1660ff1614611ffe576040517f08c379a000000000000000000000000000000000000000000000000000000000815260040180806020018281038252600f8152602001807f474c5847616d653a204c4f434b4544000000000000000000000000000000000081525060200191505060405180910390fd5b6000601660006101000a81548160ff021916908360ff1602179055506120226111be565b15612095576040517f08c379a000000000000000000000000000000000000000000000000000000000815260040180806020018281038252600e8152602001807f53746172743a207374617274656400000000000000000000000000000000000081525060200191505060405180910390fd5b600360009054906101000a900473ffffffffffffffffffffffffffffffffffffffff1673ffffffffffffffffffffffffffffffffffffffff163373ffffffffffffffffffffffffffffffffffffffff1614612158576040517f08c379a00000000000000000000000000000000000000000000000000000000081526004018080602001828103825260128152602001807f474c5847616d653a20464f5242494444454e000000000000000000000000000081525060200191505060405180910390fd5b600073ffffffffffffffffffffffffffffffffffffffff168473ffffffffffffffffffffffffffffffffffffffff1614156121fb576040517f08c379a00000000000000000000000000000000000000000000000000000000081526004018080602001828103825260198152602001807f474c5847616d653a204245545f414444524553535f5a45524f0000000000000081525060200191505060405180910390fd5b60008211612271576040517f08c379a00000000000000000000000000000000000000000000000000000000081526004018080602001828103825260188152602001807f474c5847616d653a204245545f414d4f554e545f5a45524f000000000000000081525060200191505060405180910390fd5b82156124195761228c82600a5461284390919063ffffffff16565b600a819055506122a86001600c5461284390919063ffffffff16565b600c8190555061230082600e60008773ffffffffffffffffffffffffffffffffffffffff1673ffffffffffffffffffffffffffffffffffffffff1681526020019081526020016000205461284390919063ffffffff16565b600e60008673ffffffffffffffffffffffffffffffffffffffff1673ffffffffffffffffffffffffffffffffffffffff16815260200190815260200160002081905550601154600e60008673ffffffffffffffffffffffffffffffffffffffff1673ffffffffffffffffffffffffffffffffffffffff16815260200190815260200160002054111561241457600e60008573ffffffffffffffffffffffffffffffffffffffff1673ffffffffffffffffffffffffffffffffffffffff1681526020019081526020016000205460118190555083601260006101000a81548173ffffffffffffffffffffffffffffffffffffffff021916908373ffffffffffffffffffffffffffffffffffffffff1602179055505b6125b7565b61242e82600b5461284390919063ffffffff16565b600b8190555061244a6001600d5461284390919063ffffffff16565b600d819055506124a282600f60008773ffffffffffffffffffffffffffffffffffffffff1673ffffffffffffffffffffffffffffffffffffffff1681526020019081526020016000205461284390919063ffffffff16565b600f60008673ffffffffffffffffffffffffffffffffffffffff1673ffffffffffffffffffffffffffffffffffffffff16815260200190815260200160002081905550601154600f60008673ffffffffffffffffffffffffffffffffffffffff1673ffffffffffffffffffffffffffffffffffffffff1681526020019081526020016000205411156125b657600f60008573ffffffffffffffffffffffffffffffffffffffff1673ffffffffffffffffffffffffffffffffffffffff1681526020019081526020016000205460118190555083601260006101000a81548173ffffffffffffffffffffffffffffffffffffffff021916908373ffffffffffffffffffffffffffffffffffffffff1602179055505b5b73__CompoundHelper________________________630c0a769b600460009054906101000a900473ffffffffffffffffffffffffffffffffffffffff16600660009054906101000a900473ffffffffffffffffffffffffffffffffffffffff16856040518463ffffffff1660e01b8152600401808473ffffffffffffffffffffffffffffffffffffffff1673ffffffffffffffffffffffffffffffffffffffff1681526020018373ffffffffffffffffffffffffffffffffffffffff1673ffffffffffffffffffffffffffffffffffffffff168152602001828152602001935050505060206040518083038186803b1580156126b257600080fd5b505af41580156126c6573d6000803e3d6000fd5b505050506040513d60208110156126dc57600080fd5b8101908080519060200190929190505050507fb8385a203db1c9a53995e98892022cf36587e8ab2cf86e67e1be4bba4033f8c2848484604051808473ffffffffffffffffffffffffffffffffffffffff1673ffffffffffffffffffffffffffffffffffffffff16815260200183151515158152602001828152602001935050505060405180910390a1600190506001601660006101000a81548160ff021916908360ff1602179055509392505050565b600560009054906101000a900473ffffffffffffffffffffffffffffffffffffffff1681565b60155481565b60145481565b600e6020528060005260406000206000915090505481565b600360009054906101000a900473ffffffffffffffffffffffffffffffffffffffff1681565b600080612824846128168588612dd590919063ffffffff16565b612e5b90919063ffffffff16565b9050612839858261284390919063ffffffff16565b9150509392505050565b6000808284019050838110156128c1576040517f08c379a000000000000000000000000000000000000000000000000000000000815260040180806020018281038252601b8152602001807f536166654d6174683a206164646974696f6e206f766572666c6f77000000000081525060200191505060405180910390fd5b8091505092915050565b600060608473ffffffffffffffffffffffffffffffffffffffff1663a9059cbb8585604051602401808373ffffffffffffffffffffffffffffffffffffffff1673ffffffffffffffffffffffffffffffffffffffff168152602001828152602001925050506040516020818303038152906040529060e01b6020820180517bffffffffffffffffffffffffffffffffffffffffffffffffffffffff83818316178352505050506040518082805190602001908083835b602083106129a45780518252602082019150602081019050602083039250612981565b6001836020036101000a0380198251168184511680821785525050505050509050019150506000604051808303816000865af19150503d8060008114612a06576040519150601f19603f3d011682016040523d82523d6000602084013e612a0b565b606091505b5091509150818015612a4b5750600081511480612a4a5750808060200190516020811015612a3857600080fd5b81019080805190602001909291905050505b5b612abd576040517f08c379a000000000000000000000000000000000000000000000000000000000815260040180806020018281038252601b8152602001807f47616d6548656c7065723a205452414e534645525f4641494c4544000000000081525060200191505060405180910390fd5b5050505050565b600073__CompoundHelper________________________63bba06f27600460009054906101000a900473ffffffffffffffffffffffffffffffffffffffff16600660009054906101000a900473ffffffffffffffffffffffffffffffffffffffff166040518363ffffffff1660e01b8152600401808373ffffffffffffffffffffffffffffffffffffffff1673ffffffffffffffffffffffffffffffffffffffff1681526020018273ffffffffffffffffffffffffffffffffffffffff1673ffffffffffffffffffffffffffffffffffffffff1681526020019250505060206040518083038186803b158015612bb957600080fd5b505af4158015612bcd573d6000803e3d6000fd5b505050506040513d6020811015612be357600080fd5b810190808051906020019092919050505090506000612c0f600b54600a5461284390919063ffffffff16565b9050808210612c86576040517f08c379a000000000000000000000000000000000000000000000000000000000815260040180806020018281038252601b8152602001807f474c5847616d653a2046494e5f494e434f4d455f494e56414c4944000000000081525060200191505060405180910390fd5b612c998183612ea590919063ffffffff16565b601381905550612ca7612eef565b5050565b60008054148015612cbe57506000600154145b612d13576040517f08c379a00000000000000000000000000000000000000000000000000000000081526004018080602001828103825260278152602001806132266027913960400191505060405180910390fd5b808210612d6b576040517f08c379a00000000000000000000000000000000000000000000000000000000081526004018080602001828103825260228152602001806132046022913960400191505060405180910390fd5b438211612dc3576040517f08c379a00000000000000000000000000000000000000000000000000000000081526004018080602001828103825260228152602001806132046022913960400191505060405180910390fd5b81600081905550806001819055505050565b600080831415612de85760009050612e55565b6000828402905082848281612df957fe5b0414612e50576040517f08c379a00000000000000000000000000000000000000000000000000000000081526004018080602001828103825260218152602001806131e36021913960400191505060405180910390fd5b809150505b92915050565b6000612e9d83836040518060400160405280601a81526020017f536166654d6174683a206469766973696f6e206279207a65726f000000000000815250612ff5565b905092915050565b6000612ee783836040518060400160405280601e81526020017f536166654d6174683a207375627472616374696f6e206f766572666c6f7700008152506130bb565b905092915050565b600960009054906101000a900460ff1615612f5557612f2d6064612f1f6003600b54612dd590919063ffffffff16565b612e5b90919063ffffffff16565b601481905550612f4a601454600b54612ea590919063ffffffff16565b601581905550612fa2565b612f7e6064612f706003600a54612dd590919063ffffffff16565b612e5b90919063ffffffff16565b601481905550612f9b601454600a54612ea590919063ffffffff16565b6015819055505b612ff3600460009054906101000a900473ffffffffffffffffffffffffffffffffffffffff16600560009054906101000a900473ffffffffffffffffffffffffffffffffffffffff166014546128cb565b565b600080831182906130a1576040517f08c379a00000000000000000000000000000000000000000000000000000000081526004018080602001828103825283818151815260200191508051906020019080838360005b8381101561306657808201518184015260208101905061304b565b50505050905090810190601f1680156130935780820380516001836020036101000a031916815260200191505b509250505060405180910390fd5b5060008385816130ad57fe5b049050809150509392505050565b6000838311158290613168576040517f08c379a00000000000000000000000000000000000000000000000000000000081526004018080602001828103825283818151815260200191508051906020019080838360005b8381101561312d578082015181840152602081019050613112565b50505050905090810190601f16801561315a5780820380516001836020036101000a031916815260200191505b509250505060405180910390fd5b506000838503905080915050939250505056fe474c5847616d653a2047414d455f524553554c545f414c52454144595f4f50454e474c5847616d653a2047414d455f524553554c545f414c52454144595f4f5241434c4544474c5847616d653a2047414d455f4e4f545f53544152545f4745545f494e434f4d45536166654d6174683a206d756c7469706c69636174696f6e206f766572666c6f77474c584c6966656379636c653a20424c4f434b5f4e554d4245525f494e56414c4944474c584c6966656379636c653a20424c4f434b5f4e554d4245525f414c52454144595f494e4954a264697066735822122043efe4d0feed760dad22f3f2889ac0068021996c32eeab3a39ac6265863d97d364736f6c63430006020033",
  "source": "pragma solidity ^0.6.0;\n\nimport \"@openzeppelin/contracts/math/SafeMath.sol\";\n\nimport \"./interface/IGLXGame.sol\";\nimport \"./interface/IGLXFactory.sol\";\nimport \"./abstract/GLXLifecycle.sol\";\nimport \"./library/GLXHelper.sol\";\nimport \"./library/CompoundHelper.sol\";\n\n\n\ncontract GLXGame is GLXLifecycle{\n\n    using SafeMath for uint256;\n\n    //3%\n    uint public constant SHARE_HOLDER_RAKE_RATE = 3;\n\n    address public factory;\n    address public router;\n\n    //token\n    address public extToken;\n    //token\n    address public intToken;\n    //token\n    address public finToken;\n\n\n    //true false \n    bool public isOnChainGame;\n    //\n    bool public isGameResultOpen;\n\n    //tokenDAI\n    address public gameObjectToken;\n    //\n    uint256 public gameObjectTokenSupply;\n\n\n    //true  false\n    bool public gameResult;\n\n    //\n    uint256 public trueTotalAmount;\n    //\n    uint256 public falseTotalAmount;\n    //\n    uint256 public trueTotalCount;\n    //\n    uint256 public falseTotalCount;\n\n    //\n    mapping (address => uint256) public trueAmountMap;\n    //\n    mapping (address => uint256) public falseAmountMap;\n\n    //falsetrue\n    mapping (address => bool) public isReceivedMap;\n\n    //\n    uint256 public maxAmount;\n    //\n    address public maxAmountAccount;\n\n    //\n    uint256 public interestIncome;\n    //\n    uint256 public shareHolderProfit;\n    //falseTotalAmount - shareHolderProfit  trueTotalAmount - shareHolderProfit\n    uint256 public winPrincipalProfit;\n\n    //\n    uint8 private unlocked = 1;\n\n\n    //\n    event Bet(address account, bool direction, uint256 amount);\n    //\n    event ReceiveIncome(address account);\n    //\n    event UpdateGameResult();\n    //oracle\n    event UpdateGameResultByOracle(uint8 _gameResult);\n\n    constructor() public {\n        factory = msg.sender;\n    }\n\n    // factoryinit\n    function initialize(\n        address _router,\n        address _extToken,\n        address _intToken,\n        address _finToken,\n\n        uint _startBlockNumber,\n        uint _endBlockNumber,\n        bool _isOnChainGame,\n        address _gameObjectToken,\n        uint256 _gameObjectTokenSupply\n    )  external onlyFactory {\n\n        router = _router;\n        extToken = _extToken;\n        intToken = _intToken;\n        finToken = _finToken;\n\n        _initBlockNumber(_startBlockNumber, _endBlockNumber);\n\n        isOnChainGame = _isOnChainGame;\n\n        //0\n        gameObjectToken = _gameObjectToken;\n        gameObjectTokenSupply = _gameObjectTokenSupply;\n\n    }\n\n    //\n    modifier lock() {\n        require(unlocked == 1, 'GLXGame: LOCKED');\n        unlocked = 0;\n        _;\n        unlocked = 1;\n    }\n\n    modifier onlyRouter() {\n        require(msg.sender == router, 'GLXGame: FORBIDDEN');\n        _;\n    }\n\n    modifier onlyFactory() {\n        require(msg.sender == factory, 'GLXGame: FORBIDDEN');\n        _;\n    }\n\n    modifier whenNotStarted() {\n        require(!isStarted(), \"Start: started\");\n        _;\n    }\n    modifier whenStarted() {\n        require(isStarted(), \"Start: not started\");\n        _;\n    }\n\n\n    modifier whenNotEnded() {\n        require(!isEnded(), \"End: ended\");\n        _;\n    }\n\n    modifier whenEnded() {\n        require(isEnded(), \"End: not ended\");\n        _;\n    }\n\n    //\n    modifier whenCanReceive() {\n        require(!isCanReceive(), 'GLXGame: NOT_CAN_RECEIVE');\n        _;\n    }\n\n\n\n    //\n    function isCanReceive() public view returns (bool) {\n        if (!isEnded()) {\n            return false;\n        }\n\n        if(!isGameResultOpen) {\n            return false;\n        }\n\n        return true;\n    }\n\n\n\n    //\n    function isExistIncomeNeedReceive() external view returns (bool) {\n        if (!isCanReceive()) {\n            return false;\n        }\n\n        if ((trueAmountMap[msg.sender] > 0) && gameResult) {\n                return true;\n        }\n\n        if ((falseAmountMap[msg.sender] > 0) && !gameResult) {\n            return true;\n        }\n\n        if (msg.sender == maxAmountAccount) {\n            return true;\n        }\n\n        return false;\n    }\n\n    // \n    function bet(address account, bool direction, uint256 amount) external lock whenNotStarted onlyRouter returns (bool) {\n        require(account != address(0), \"GLXGame: BET_ADDRESS_ZERO\");\n        require(amount > 0, \"GLXGame: BET_AMOUNT_ZERO\");\n\n        if (direction) {\n            //\n            trueTotalAmount = trueTotalAmount.add(amount);\n            trueTotalCount = trueTotalCount.add(1);\n            trueAmountMap[account] = trueAmountMap[account].add(amount);\n            if (trueAmountMap[account] > maxAmount){\n                maxAmount = trueAmountMap[account];\n                maxAmountAccount = account;\n            }\n        } else {\n            //\n            falseTotalAmount = falseTotalAmount.add(amount);\n            falseTotalCount = falseTotalCount.add(1);\n            falseAmountMap[account] = falseAmountMap[account].add(amount);\n            if (falseAmountMap[account] > maxAmount){\n                maxAmount = falseAmountMap[account];\n                maxAmountAccount = account;\n            }\n        }\n\n        CompoundHelper.supply(extToken,  finToken, amount);\n\n        emit Bet(account, direction, amount);\n\n        return true;\n    }\n\n    //\n    function receiveIncome(address _account) external lock whenCanReceive returns (bool) {\n        require(_account != address(0), \"GLXGame: RECEIVE_ADDRESS_ZERO\");\n        require(!isReceivedMap[_account], \"GLXGame: RECEIVED\");\n\n        // oracle\n        require(isGameResultOpen, \"GLXGame: GAME_NOT_START_GET_INCOME\");\n\n        require(trueTotalAmount != 0 || falseTotalAmount != 0, \"GLXGame: NOBODY_BET\");\n\n\n        uint256 receiveAmount = 0;\n\n        //\n        if (gameResult) {\n            require(trueAmountMap[_account] != 0, \"GLXGame: NOT_EXIST\");\n\n            receiveAmount = GLXHelper.calReceiveAmount(trueAmountMap[_account], trueTotalAmount, winPrincipalProfit);\n        } else {\n            require(falseAmountMap[_account] != 0, \"GLXGame: NOT_EXIST\");\n\n            receiveAmount = GLXHelper.calReceiveAmount(falseAmountMap[_account], falseTotalAmount, winPrincipalProfit);\n        }\n\n        if (_account == maxAmountAccount) {\n            // \n            receiveAmount = receiveAmount.add(interestIncome);\n        }\n\n        if(receiveAmount > 0) {\n            GLXHelper.safeTransfer(extToken, _account, receiveAmount);\n\n            isReceivedMap[_account] = true;\n        }\n\n        emit ReceiveIncome(_account);\n        return true;\n    }\n\n    // \n    function _transferProfit2ShareHolder() private {\n        if (gameResult) {\n            shareHolderProfit = falseTotalAmount.mul(SHARE_HOLDER_RAKE_RATE).div(uint256(100));\n            //\n            winPrincipalProfit = falseTotalAmount.sub(shareHolderProfit);\n        } else {\n            shareHolderProfit = trueTotalAmount.mul(SHARE_HOLDER_RAKE_RATE).div(uint256(100));\n            winPrincipalProfit = trueTotalAmount.sub(shareHolderProfit);\n        }\n        GLXHelper.safeTransfer(extToken, intToken, shareHolderProfit);\n    }\n\n    //:\n    function _clearProfit() private {\n\n        uint256 totalAmount = CompoundHelper.redeem(extToken,  finToken);\n        uint256 initAmount = trueTotalAmount.add(falseTotalAmount);\n\n        require(totalAmount < initAmount, \"GLXGame: FIN_INCOME_INVALID\");\n\n        interestIncome = totalAmount.sub(initAmount);\n\n\n        // burn\n        _transferProfit2ShareHolder();\n\n\n    }\n\n    // ,\n    function updateGameResult() external lock whenEnded returns (bool) {\n\n        // oracle\n        require(isOnChainGame, \"GLXGame: NOT_ON_CHAIN_GAME\");\n        require(!isGameResultOpen, \"GLXGame: GAME_RESULT_ALREADY_OPEN\");\n\n        if (IERC20(gameObjectToken).totalSupply() >= gameObjectTokenSupply) {\n            gameResult = true;\n        } else {\n            gameResult = false;\n        }\n\n        //\n        _clearProfit();\n\n        //\n        isGameResultOpen = true;\n\n        emit UpdateGameResult();\n\n        return true;\n    }\n\n\n\n    // oracle;2true 1false \n    function updateGameResultByOracle(uint8 _gameResult) external lock onlyRouter whenEnded returns (bool) {\n\n        // oracle\n        require(!isOnChainGame, \"GLXGame: NOT_OFF_CHAIN_GAME\");\n        require(!isGameResultOpen, \"GLXGame: GAME_RESULT_ALREADY_ORACLED\");\n        require(_gameResult == 1 ||  _gameResult == 2, \"GLXGame: gameResult\");\n\n\n        if(_gameResult == 1) {\n            gameResult = true;\n        } else{\n            gameResult = true;\n        }\n\n        //\n        _clearProfit();\n\n        //\n        isGameResultOpen = true;\n\n        emit UpdateGameResultByOracle(_gameResult);\n\n        return true;\n    }\n\n    //\n    function getApr() external whenEnded returns (uint256) {\n        return CompoundHelper.exchangeRate(finToken);\n    }\n\n    //\n    function getCurUserCount() external view returns (uint256) {\n        return trueTotalCount.add(falseTotalCount);\n    }\n}\n",
  "sourcePath": "/Users/xuyulin/code/xuyulinnn/glxdefi/glxdefi-core/contracts/GLXGame.sol",
  "compiler": {
    "name": "solc",
    "version": "0.6.2+commit.bacdbe57.Emscripten.clang"
  },
  "schemaVersion": "3.2.3",
  "updatedAt": "2020-08-08T12:28:37.712Z",
  "devdoc": {
    "methods": {}
  },
  "userdoc": {
    "methods": {}
  }
}