{
  "contractName": "GLXGame",
  "abi": [
    {
      "inputs": [],
      "stateMutability": "nonpayable",
      "type": "constructor"
    },
    {
      "anonymous": false,
      "inputs": [
        {
          "indexed": false,
          "internalType": "address",
          "name": "account",
          "type": "address"
        },
        {
          "indexed": false,
          "internalType": "bool",
          "name": "direction",
          "type": "bool"
        },
        {
          "indexed": false,
          "internalType": "uint256",
          "name": "amount",
          "type": "uint256"
        }
      ],
      "name": "Bet",
      "type": "event"
    },
    {
      "anonymous": false,
      "inputs": [
        {
          "indexed": false,
          "internalType": "address",
          "name": "account",
          "type": "address"
        }
      ],
      "name": "ReceiveIncome",
      "type": "event"
    },
    {
      "anonymous": false,
      "inputs": [],
      "name": "UpdateGameResult",
      "type": "event"
    },
    {
      "anonymous": false,
      "inputs": [
        {
          "indexed": false,
          "internalType": "uint8",
          "name": "_gameResult",
          "type": "uint8"
        }
      ],
      "name": "UpdateGameResultByOracle",
      "type": "event"
    },
    {
      "inputs": [],
      "name": "SHARE_HOLDER_RAKE_RATE",
      "outputs": [
        {
          "internalType": "uint256",
          "name": "",
          "type": "uint256"
        }
      ],
      "stateMutability": "view",
      "type": "function"
    },
    {
      "inputs": [],
      "name": "endBlockNumber",
      "outputs": [
        {
          "internalType": "uint256",
          "name": "",
          "type": "uint256"
        }
      ],
      "stateMutability": "view",
      "type": "function"
    },
    {
      "inputs": [],
      "name": "extToken",
      "outputs": [
        {
          "internalType": "address",
          "name": "",
          "type": "address"
        }
      ],
      "stateMutability": "view",
      "type": "function"
    },
    {
      "inputs": [],
      "name": "factory",
      "outputs": [
        {
          "internalType": "address",
          "name": "",
          "type": "address"
        }
      ],
      "stateMutability": "view",
      "type": "function"
    },
    {
      "inputs": [
        {
          "internalType": "address",
          "name": "",
          "type": "address"
        }
      ],
      "name": "falseAmountMap",
      "outputs": [
        {
          "internalType": "uint256",
          "name": "",
          "type": "uint256"
        }
      ],
      "stateMutability": "view",
      "type": "function"
    },
    {
      "inputs": [],
      "name": "falseTotalAmount",
      "outputs": [
        {
          "internalType": "uint256",
          "name": "",
          "type": "uint256"
        }
      ],
      "stateMutability": "view",
      "type": "function"
    },
    {
      "inputs": [],
      "name": "falseTotalCount",
      "outputs": [
        {
          "internalType": "uint256",
          "name": "",
          "type": "uint256"
        }
      ],
      "stateMutability": "view",
      "type": "function"
    },
    {
      "inputs": [],
      "name": "finToken",
      "outputs": [
        {
          "internalType": "address",
          "name": "",
          "type": "address"
        }
      ],
      "stateMutability": "view",
      "type": "function"
    },
    {
      "inputs": [],
      "name": "gameObjectToken",
      "outputs": [
        {
          "internalType": "address",
          "name": "",
          "type": "address"
        }
      ],
      "stateMutability": "view",
      "type": "function"
    },
    {
      "inputs": [],
      "name": "gameObjectTokenSupply",
      "outputs": [
        {
          "internalType": "uint256",
          "name": "",
          "type": "uint256"
        }
      ],
      "stateMutability": "view",
      "type": "function"
    },
    {
      "inputs": [],
      "name": "gameResult",
      "outputs": [
        {
          "internalType": "bool",
          "name": "",
          "type": "bool"
        }
      ],
      "stateMutability": "view",
      "type": "function"
    },
    {
      "inputs": [],
      "name": "intToken",
      "outputs": [
        {
          "internalType": "address",
          "name": "",
          "type": "address"
        }
      ],
      "stateMutability": "view",
      "type": "function"
    },
    {
      "inputs": [],
      "name": "interestIncome",
      "outputs": [
        {
          "internalType": "uint256",
          "name": "",
          "type": "uint256"
        }
      ],
      "stateMutability": "view",
      "type": "function"
    },
    {
      "inputs": [],
      "name": "isEnded",
      "outputs": [
        {
          "internalType": "bool",
          "name": "",
          "type": "bool"
        }
      ],
      "stateMutability": "view",
      "type": "function"
    },
    {
      "inputs": [],
      "name": "isGameResultOpen",
      "outputs": [
        {
          "internalType": "bool",
          "name": "",
          "type": "bool"
        }
      ],
      "stateMutability": "view",
      "type": "function"
    },
    {
      "inputs": [],
      "name": "isOnChainGame",
      "outputs": [
        {
          "internalType": "bool",
          "name": "",
          "type": "bool"
        }
      ],
      "stateMutability": "view",
      "type": "function"
    },
    {
      "inputs": [
        {
          "internalType": "address",
          "name": "",
          "type": "address"
        }
      ],
      "name": "isReceivedMap",
      "outputs": [
        {
          "internalType": "bool",
          "name": "",
          "type": "bool"
        }
      ],
      "stateMutability": "view",
      "type": "function"
    },
    {
      "inputs": [],
      "name": "isStarted",
      "outputs": [
        {
          "internalType": "bool",
          "name": "",
          "type": "bool"
        }
      ],
      "stateMutability": "view",
      "type": "function"
    },
    {
      "inputs": [],
      "name": "maxAmount",
      "outputs": [
        {
          "internalType": "uint256",
          "name": "",
          "type": "uint256"
        }
      ],
      "stateMutability": "view",
      "type": "function"
    },
    {
      "inputs": [],
      "name": "maxAmountAccount",
      "outputs": [
        {
          "internalType": "address",
          "name": "",
          "type": "address"
        }
      ],
      "stateMutability": "view",
      "type": "function"
    },
    {
      "inputs": [],
      "name": "router",
      "outputs": [
        {
          "internalType": "address",
          "name": "",
          "type": "address"
        }
      ],
      "stateMutability": "view",
      "type": "function"
    },
    {
      "inputs": [],
      "name": "shareHolderProfit",
      "outputs": [
        {
          "internalType": "uint256",
          "name": "",
          "type": "uint256"
        }
      ],
      "stateMutability": "view",
      "type": "function"
    },
    {
      "inputs": [],
      "name": "startBlockNumber",
      "outputs": [
        {
          "internalType": "uint256",
          "name": "",
          "type": "uint256"
        }
      ],
      "stateMutability": "view",
      "type": "function"
    },
    {
      "inputs": [
        {
          "internalType": "address",
          "name": "",
          "type": "address"
        }
      ],
      "name": "trueAmountMap",
      "outputs": [
        {
          "internalType": "uint256",
          "name": "",
          "type": "uint256"
        }
      ],
      "stateMutability": "view",
      "type": "function"
    },
    {
      "inputs": [],
      "name": "trueTotalAmount",
      "outputs": [
        {
          "internalType": "uint256",
          "name": "",
          "type": "uint256"
        }
      ],
      "stateMutability": "view",
      "type": "function"
    },
    {
      "inputs": [],
      "name": "trueTotalCount",
      "outputs": [
        {
          "internalType": "uint256",
          "name": "",
          "type": "uint256"
        }
      ],
      "stateMutability": "view",
      "type": "function"
    },
    {
      "inputs": [],
      "name": "winPrincipalProfit",
      "outputs": [
        {
          "internalType": "uint256",
          "name": "",
          "type": "uint256"
        }
      ],
      "stateMutability": "view",
      "type": "function"
    },
    {
      "inputs": [
        {
          "internalType": "address",
          "name": "_router",
          "type": "address"
        },
        {
          "internalType": "address",
          "name": "_extToken",
          "type": "address"
        },
        {
          "internalType": "address",
          "name": "_intToken",
          "type": "address"
        },
        {
          "internalType": "address",
          "name": "_finToken",
          "type": "address"
        },
        {
          "internalType": "uint256",
          "name": "_startBlockNumber",
          "type": "uint256"
        },
        {
          "internalType": "uint256",
          "name": "_endBlockNumber",
          "type": "uint256"
        },
        {
          "internalType": "bool",
          "name": "_isOnChainGame",
          "type": "bool"
        },
        {
          "internalType": "address",
          "name": "_gameObjectToken",
          "type": "address"
        },
        {
          "internalType": "uint256",
          "name": "_gameObjectTokenSupply",
          "type": "uint256"
        }
      ],
      "name": "initialize",
      "outputs": [],
      "stateMutability": "nonpayable",
      "type": "function"
    },
    {
      "inputs": [],
      "name": "isCanReceive",
      "outputs": [
        {
          "internalType": "bool",
          "name": "",
          "type": "bool"
        }
      ],
      "stateMutability": "view",
      "type": "function"
    },
    {
      "inputs": [
        {
          "internalType": "address",
          "name": "account",
          "type": "address"
        }
      ],
      "name": "isExistIncomeNeedReceive",
      "outputs": [
        {
          "internalType": "bool",
          "name": "",
          "type": "bool"
        }
      ],
      "stateMutability": "view",
      "type": "function"
    },
    {
      "inputs": [
        {
          "internalType": "address",
          "name": "account",
          "type": "address"
        },
        {
          "internalType": "bool",
          "name": "direction",
          "type": "bool"
        },
        {
          "internalType": "uint256",
          "name": "amount",
          "type": "uint256"
        }
      ],
      "name": "bet",
      "outputs": [
        {
          "internalType": "bool",
          "name": "",
          "type": "bool"
        }
      ],
      "stateMutability": "nonpayable",
      "type": "function"
    },
    {
      "inputs": [
        {
          "internalType": "address",
          "name": "_account",
          "type": "address"
        }
      ],
      "name": "receiveIncome",
      "outputs": [
        {
          "internalType": "bool",
          "name": "",
          "type": "bool"
        }
      ],
      "stateMutability": "nonpayable",
      "type": "function"
    },
    {
      "inputs": [],
      "name": "updateGameResult",
      "outputs": [
        {
          "internalType": "bool",
          "name": "",
          "type": "bool"
        }
      ],
      "stateMutability": "nonpayable",
      "type": "function"
    },
    {
      "inputs": [
        {
          "internalType": "uint8",
          "name": "_gameResult",
          "type": "uint8"
        }
      ],
      "name": "updateGameResultByOracle",
      "outputs": [
        {
          "internalType": "bool",
          "name": "",
          "type": "bool"
        }
      ],
      "stateMutability": "nonpayable",
      "type": "function"
    },
    {
      "inputs": [
        {
          "internalType": "address",
          "name": "_account",
          "type": "address"
        }
      ],
      "name": "getIncomeAmount",
      "outputs": [
        {
          "internalType": "uint256",
          "name": "",
          "type": "uint256"
        }
      ],
      "stateMutability": "view",
      "type": "function"
    },
    {
      "inputs": [],
      "name": "getCurUserCount",
      "outputs": [
        {
          "internalType": "uint256",
          "name": "",
          "type": "uint256"
        }
      ],
      "stateMutability": "view",
      "type": "function"
    }
  ],
  "bytecode": "0x60806040526001601660006101000a81548160ff021916908360ff16021790555034801561002c57600080fd5b5033600260006101000a81548173ffffffffffffffffffffffffffffffffffffffff021916908373ffffffffffffffffffffffffffffffffffffffff1602179055506137668061007d6000396000f3fe608060405234801561001057600080fd5b506004361061021c5760003560e01c80638b6707b411610125578063d84ce2d9116100ad578063ea0610381161007c578063ea06103814610939578063ec4bbf7714610983578063ef7128fe146109a1578063f5da8b82146109bf578063f887ea4014610a175761021c565b8063d84ce2d9146107cd578063e30fd44014610817578063e43cceb61461086f578063e501122b146108e15761021c565b8063a8f8d9df116100f4578063a8f8d9df146106dc578063b4999e85146106fe578063c45a01551461071c578063caa9aa7014610766578063d0c122d2146107af5761021c565b80638b6707b41461058f5780638f47ac71146105ad578063a4104bc71461069c578063a4fd6f56146106ba5761021c565b80634d830d6f116101a85780636007b239116101775780636007b239146104c5578063605ee8eb146104e7578063606c7db01461050557806369ee9fee1461054f5780637152f8001461056d5761021c565b80634d830d6f14610445578063544736e6146104635780635d2ad4e8146104855780635f48f393146104a75761021c565b80633bb51ee4116101ef5780633bb51ee4146103075780633cb7e012146103515780633d83e5d7146103ad57806346378f0c146103cb578063498a4c2d146104275761021c565b80630145584b146102215780630b246c541461027d578063143c24de1461029f5780631df4111b146102bd575b600080fd5b6102636004803603602081101561023757600080fd5b81019080803573ffffffffffffffffffffffffffffffffffffffff169060200190929190505050610a61565b604051808215151515815260200191505060405180910390f35b610285611200565b604051808215151515815260200191505060405180910390f35b6102a7611213565b6040518082815260200191505060405180910390f35b6102c5611219565b604051808273ffffffffffffffffffffffffffffffffffffffff1673ffffffffffffffffffffffffffffffffffffffff16815260200191505060405180910390f35b61030f61123f565b604051808273ffffffffffffffffffffffffffffffffffffffff1673ffffffffffffffffffffffffffffffffffffffff16815260200191505060405180910390f35b6103936004803603602081101561036757600080fd5b81019080803573ffffffffffffffffffffffffffffffffffffffff169060200190929190505050611265565b604051808215151515815260200191505060405180910390f35b6103b5611285565b6040518082815260200191505060405180910390f35b61040d600480360360208110156103e157600080fd5b81019080803573ffffffffffffffffffffffffffffffffffffffff16906020019092919050505061128b565b604051808215151515815260200191505060405180910390f35b61042f6114cd565b6040518082815260200191505060405180910390f35b61044d6114d3565b6040518082815260200191505060405180910390f35b61046b6114f1565b604051808215151515815260200191505060405180910390f35b61048d61150c565b604051808215151515815260200191505060405180910390f35b6104af61186d565b6040518082815260200191505060405180910390f35b6104cd611873565b604051808215151515815260200191505060405180910390f35b6104ef611886565b6040518082815260200191505060405180910390f35b61050d61188c565b604051808273ffffffffffffffffffffffffffffffffffffffff1673ffffffffffffffffffffffffffffffffffffffff16815260200191505060405180910390f35b6105576118b2565b6040518082815260200191505060405180910390f35b6105756118b8565b604051808215151515815260200191505060405180910390f35b6105976118cb565b6040518082815260200191505060405180910390f35b61069a60048036036101208110156105c457600080fd5b81019080803573ffffffffffffffffffffffffffffffffffffffff169060200190929190803573ffffffffffffffffffffffffffffffffffffffff169060200190929190803573ffffffffffffffffffffffffffffffffffffffff169060200190929190803573ffffffffffffffffffffffffffffffffffffffff1690602001909291908035906020019092919080359060200190929190803515159060200190929190803573ffffffffffffffffffffffffffffffffffffffff169060200190929190803590602001909291905050506118d1565b005b6106a4611b0f565b6040518082815260200191505060405180910390f35b6106c2611b15565b604051808215151515815260200191505060405180910390f35b6106e4611b32565b604051808215151515815260200191505060405180910390f35b610706611b6e565b6040518082815260200191505060405180910390f35b610724611b74565b604051808273ffffffffffffffffffffffffffffffffffffffff1673ffffffffffffffffffffffffffffffffffffffff16815260200191505060405180910390f35b6107956004803603602081101561077c57600080fd5b81019080803560ff169060200190929190505050611b9a565b604051808215151515815260200191505060405180910390f35b6107b7611fba565b6040518082815260200191505060405180910390f35b6107d5611fbf565b604051808273ffffffffffffffffffffffffffffffffffffffff1673ffffffffffffffffffffffffffffffffffffffff16815260200191505060405180910390f35b6108596004803603602081101561082d57600080fd5b81019080803573ffffffffffffffffffffffffffffffffffffffff169060200190929190505050611fe5565b6040518082815260200191505060405180910390f35b6108c76004803603606081101561088557600080fd5b81019080803573ffffffffffffffffffffffffffffffffffffffff16906020019092919080351515906020019092919080359060200190929190505050611ffd565b604051808215151515815260200191505060405180910390f35b610923600480360360208110156108f757600080fd5b81019080803573ffffffffffffffffffffffffffffffffffffffff169060200190929190505050612815565b6040518082815260200191505060405180910390f35b610941612c63565b604051808273ffffffffffffffffffffffffffffffffffffffff1673ffffffffffffffffffffffffffffffffffffffff16815260200191505060405180910390f35b61098b612c89565b6040518082815260200191505060405180910390f35b6109a9612c8f565b6040518082815260200191505060405180910390f35b610a01600480360360208110156109d557600080fd5b81019080803573ffffffffffffffffffffffffffffffffffffffff169060200190929190505050612c95565b6040518082815260200191505060405180910390f35b610a1f612cad565b604051808273ffffffffffffffffffffffffffffffffffffffff1673ffffffffffffffffffffffffffffffffffffffff16815260200191505060405180910390f35b60006001601660009054906101000a900460ff1660ff1614610aeb576040517f08c379a000000000000000000000000000000000000000000000000000000000815260040180806020018281038252600f8152602001807f474c5847616d653a204c4f434b4544000000000000000000000000000000000081525060200191505060405180910390fd5b6000601660006101000a81548160ff021916908360ff160217905550610b0f611b32565b610b81576040517f08c379a00000000000000000000000000000000000000000000000000000000081526004018080602001828103825260188152602001807f474c5847616d653a204e4f545f43414e5f52454345495645000000000000000081525060200191505060405180910390fd5b600073ffffffffffffffffffffffffffffffffffffffff168273ffffffffffffffffffffffffffffffffffffffff161415610c24576040517f08c379a000000000000000000000000000000000000000000000000000000000815260040180806020018281038252601d8152602001807f474c5847616d653a20524543454956455f414444524553535f5a45524f00000081525060200191505060405180910390fd5b601060008373ffffffffffffffffffffffffffffffffffffffff1673ffffffffffffffffffffffffffffffffffffffff16815260200190815260200160002060009054906101000a900460ff1615610ce4576040517f08c379a00000000000000000000000000000000000000000000000000000000081526004018080602001828103825260118152602001807f474c5847616d653a20524543454956454400000000000000000000000000000081525060200191505060405180910390fd5b600660159054906101000a900460ff16610d49576040517f08c379a00000000000000000000000000000000000000000000000000000000081526004018080602001828103825260228152602001806136a56022913960400191505060405180910390fd5b6000600a54141580610d5e57506000600b5414155b610dd0576040517f08c379a00000000000000000000000000000000000000000000000000000000081526004018080602001828103825260138152602001807f474c5847616d653a204e4f424f44595f4245540000000000000000000000000081525060200191505060405180910390fd5b6000809050600960009054906101000a900460ff1615610f34576000600e60008573ffffffffffffffffffffffffffffffffffffffff1673ffffffffffffffffffffffffffffffffffffffff168152602001908152602001600020541115610e8757610e80600e60008573ffffffffffffffffffffffffffffffffffffffff1673ffffffffffffffffffffffffffffffffffffffff16815260200190815260200160002054600a54601554612cd3565b9050610f2f565b6000600a54148015610ed857506000600f60008573ffffffffffffffffffffffffffffffffffffffff1673ffffffffffffffffffffffffffffffffffffffff16815260200190815260200160002054115b15610f2e57610f2b600f60008573ffffffffffffffffffffffffffffffffffffffff1673ffffffffffffffffffffffffffffffffffffffff16815260200190815260200160002054600b54601554612cd3565b90505b5b61107a565b6000600f60008573ffffffffffffffffffffffffffffffffffffffff1673ffffffffffffffffffffffffffffffffffffffff168152602001908152602001600020541115610fd157610fca600f60008573ffffffffffffffffffffffffffffffffffffffff1673ffffffffffffffffffffffffffffffffffffffff16815260200190815260200160002054600b54601554612cd3565b9050611079565b6000600b5414801561102257506000600e60008573ffffffffffffffffffffffffffffffffffffffff1673ffffffffffffffffffffffffffffffffffffffff16815260200190815260200160002054115b1561107857611075600e60008573ffffffffffffffffffffffffffffffffffffffff1673ffffffffffffffffffffffffffffffffffffffff16815260200190815260200160002054600a54601554612cd3565b90505b5b5b601260009054906101000a900473ffffffffffffffffffffffffffffffffffffffff1673ffffffffffffffffffffffffffffffffffffffff168373ffffffffffffffffffffffffffffffffffffffff1614156110e8576110e560135482612d1a90919063ffffffff16565b90505b60008111156111775761111e600460009054906101000a900473ffffffffffffffffffffffffffffffffffffffff168483612da2565b6001601060008573ffffffffffffffffffffffffffffffffffffffff1673ffffffffffffffffffffffffffffffffffffffff16815260200190815260200160002060006101000a81548160ff0219169083151502179055505b7f96c637b32857e341c944dc5ccd0915e732ef882cc0b34070d3c715f89cfff69d83604051808273ffffffffffffffffffffffffffffffffffffffff1673ffffffffffffffffffffffffffffffffffffffff16815260200191505060405180910390a160019150506001601660006101000a81548160ff021916908360ff160217905550919050565b600660149054906101000a900460ff1681565b600d5481565b600660009054906101000a900473ffffffffffffffffffffffffffffffffffffffff1681565b600460009054906101000a900473ffffffffffffffffffffffffffffffffffffffff1681565b60106020528060005260406000206000915054906101000a900460ff1681565b60085481565b6000611295611b32565b6112a257600090506114c8565b6000600e60008473ffffffffffffffffffffffffffffffffffffffff1673ffffffffffffffffffffffffffffffffffffffff168152602001908152602001600020541180156112fd5750600960009054906101000a900460ff165b1561130b57600190506114c8565b6000600f60008473ffffffffffffffffffffffffffffffffffffffff1673ffffffffffffffffffffffffffffffffffffffff168152602001908152602001600020541180156113675750600960009054906101000a900460ff16155b1561137557600190506114c8565b6000600e60008473ffffffffffffffffffffffffffffffffffffffff1673ffffffffffffffffffffffffffffffffffffffff168152602001908152602001600020541180156113d15750600960009054906101000a900460ff16155b80156113df57506000600b54145b156113ed57600190506114c8565b6000600f60008473ffffffffffffffffffffffffffffffffffffffff1673ffffffffffffffffffffffffffffffffffffffff168152602001908152602001600020541180156114485750600960009054906101000a900460ff165b801561145657506000600a54145b1561146457600190506114c8565b601260009054906101000a900473ffffffffffffffffffffffffffffffffffffffff1673ffffffffffffffffffffffffffffffffffffffff168273ffffffffffffffffffffffffffffffffffffffff1614156114c357600190506114c8565b600090505b919050565b60005481565b60006114ec600d54600c54612d1a90919063ffffffff16565b905090565b6000805443106115045760019050611509565b600090505b90565b60006001601660009054906101000a900460ff1660ff1614611596576040517f08c379a000000000000000000000000000000000000000000000000000000000815260040180806020018281038252600f8152602001807f474c5847616d653a204c4f434b4544000000000000000000000000000000000081525060200191505060405180910390fd5b6000601660006101000a81548160ff021916908360ff1602179055506115ba611b15565b61162c576040517f08c379a000000000000000000000000000000000000000000000000000000000815260040180806020018281038252600e8152602001807f456e643a206e6f7420656e64656400000000000000000000000000000000000081525060200191505060405180910390fd5b600660149054906101000a900460ff166116ae576040517f08c379a000000000000000000000000000000000000000000000000000000000815260040180806020018281038252601a8152602001807f474c5847616d653a204e4f545f4f4e5f434841494e5f47414d4500000000000081525060200191505060405180910390fd5b600660159054906101000a900460ff1615611714576040517f08c379a00000000000000000000000000000000000000000000000000000000081526004018080602001828103825260218152602001806136606021913960400191505060405180910390fd5b600854600760009054906101000a900473ffffffffffffffffffffffffffffffffffffffff1673ffffffffffffffffffffffffffffffffffffffff166318160ddd6040518163ffffffff1660e01b815260040160206040518083038186803b15801561177f57600080fd5b505afa158015611793573d6000803e3d6000fd5b505050506040513d60208110156117a957600080fd5b8101908080519060200190929190505050106117df576001600960006101000a81548160ff0219169083151502179055506117fb565b6000600960006101000a81548160ff0219169083151502179055505b611803612f9b565b6001600660156101000a81548160ff0219169083151502179055507fbe7f54e72ae083e2ce42f287bdd572a2c497ab588f9215719ed50557661ab4da60405160405180910390a1600190506001601660006101000a81548160ff021916908360ff16021790555090565b60115481565b600660159054906101000a900460ff1681565b600b5481565b600760009054906101000a900473ffffffffffffffffffffffffffffffffffffffff1681565b600a5481565b600960009054906101000a900460ff1681565b60135481565b600260009054906101000a900473ffffffffffffffffffffffffffffffffffffffff1673ffffffffffffffffffffffffffffffffffffffff163373ffffffffffffffffffffffffffffffffffffffff1614611994576040517f08c379a00000000000000000000000000000000000000000000000000000000081526004018080602001828103825260128152602001807f474c5847616d653a20464f5242494444454e000000000000000000000000000081525060200191505060405180910390fd5b88600360006101000a81548173ffffffffffffffffffffffffffffffffffffffff021916908373ffffffffffffffffffffffffffffffffffffffff16021790555087600460006101000a81548173ffffffffffffffffffffffffffffffffffffffff021916908373ffffffffffffffffffffffffffffffffffffffff16021790555086600560006101000a81548173ffffffffffffffffffffffffffffffffffffffff021916908373ffffffffffffffffffffffffffffffffffffffff16021790555085600660006101000a81548173ffffffffffffffffffffffffffffffffffffffff021916908373ffffffffffffffffffffffffffffffffffffffff160217905550611aa28585613183565b82600660146101000a81548160ff02191690831515021790555081600760006101000a81548173ffffffffffffffffffffffffffffffffffffffff021916908373ffffffffffffffffffffffffffffffffffffffff16021790555080600881905550505050505050505050565b600c5481565b6000600154431115611b2a5760019050611b2f565b600090505b90565b6000611b3c611b15565b611b495760009050611b6b565b600660159054906101000a900460ff16611b665760009050611b6b565b600190505b90565b60015481565b600260009054906101000a900473ffffffffffffffffffffffffffffffffffffffff1681565b60006001601660009054906101000a900460ff1660ff1614611c24576040517f08c379a000000000000000000000000000000000000000000000000000000000815260040180806020018281038252600f8152602001807f474c5847616d653a204c4f434b4544000000000000000000000000000000000081525060200191505060405180910390fd5b6000601660006101000a81548160ff021916908360ff160217905550600360009054906101000a900473ffffffffffffffffffffffffffffffffffffffff1673ffffffffffffffffffffffffffffffffffffffff163373ffffffffffffffffffffffffffffffffffffffff1614611d03576040517f08c379a00000000000000000000000000000000000000000000000000000000081526004018080602001828103825260128152602001807f474c5847616d653a20464f5242494444454e000000000000000000000000000081525060200191505060405180910390fd5b611d0b611b15565b611d7d576040517f08c379a000000000000000000000000000000000000000000000000000000000815260040180806020018281038252600e8152602001807f456e643a206e6f7420656e64656400000000000000000000000000000000000081525060200191505060405180910390fd5b600660149054906101000a900460ff1615611e00576040517f08c379a000000000000000000000000000000000000000000000000000000000815260040180806020018281038252601b8152602001807f474c5847616d653a204e4f545f4f46465f434841494e5f47414d45000000000081525060200191505060405180910390fd5b600660159054906101000a900460ff1615611e66576040517f08c379a00000000000000000000000000000000000000000000000000000000081526004018080602001828103825260248152602001806136816024913960400191505060405180910390fd5b60018260ff161480611e7b575060028260ff16145b611eed576040517f08c379a000000000000000000000000000000000000000000000000000000000815260040180806020018281038252601c8152602001807f474c5847616d653a2067616d65526573756c74e4b88de59088e6b3950000000081525060200191505060405180910390fd5b60018260ff161415611f19576001600960006101000a81548160ff021916908315150217905550611f35565b6001600960006101000a81548160ff0219169083151502179055505b611f3d612f9b565b6001600660156101000a81548160ff0219169083151502179055507f0bea59c101d3ac28bd55906d7a058230e2c2eccced5f70a6012e1a248df9050282604051808260ff1660ff16815260200191505060405180910390a1600190506001601660006101000a81548160ff021916908360ff160217905550919050565b600381565b601260009054906101000a900473ffffffffffffffffffffffffffffffffffffffff1681565b600f6020528060005260406000206000915090505481565b60006001601660009054906101000a900460ff1660ff1614612087576040517f08c379a000000000000000000000000000000000000000000000000000000000815260040180806020018281038252600f8152602001807f474c5847616d653a204c4f434b4544000000000000000000000000000000000081525060200191505060405180910390fd5b6000601660006101000a81548160ff021916908360ff1602179055506120ab6114f1565b1561211e576040517f08c379a000000000000000000000000000000000000000000000000000000000815260040180806020018281038252600e8152602001807f53746172743a207374617274656400000000000000000000000000000000000081525060200191505060405180910390fd5b600360009054906101000a900473ffffffffffffffffffffffffffffffffffffffff1673ffffffffffffffffffffffffffffffffffffffff163373ffffffffffffffffffffffffffffffffffffffff16146121e1576040517f08c379a00000000000000000000000000000000000000000000000000000000081526004018080602001828103825260128152602001807f474c5847616d653a20464f5242494444454e000000000000000000000000000081525060200191505060405180910390fd5b600073ffffffffffffffffffffffffffffffffffffffff168473ffffffffffffffffffffffffffffffffffffffff161415612284576040517f08c379a00000000000000000000000000000000000000000000000000000000081526004018080602001828103825260198152602001807f474c5847616d653a204245545f414444524553535f5a45524f0000000000000081525060200191505060405180910390fd5b600082116122fa576040517f08c379a00000000000000000000000000000000000000000000000000000000081526004018080602001828103825260188152602001807f474c5847616d653a204245545f414d4f554e545f5a45524f000000000000000081525060200191505060405180910390fd5b82156124a25761231582600a54612d1a90919063ffffffff16565b600a819055506123316001600c54612d1a90919063ffffffff16565b600c8190555061238982600e60008773ffffffffffffffffffffffffffffffffffffffff1673ffffffffffffffffffffffffffffffffffffffff16815260200190815260200160002054612d1a90919063ffffffff16565b600e60008673ffffffffffffffffffffffffffffffffffffffff1673ffffffffffffffffffffffffffffffffffffffff16815260200190815260200160002081905550601154600e60008673ffffffffffffffffffffffffffffffffffffffff1673ffffffffffffffffffffffffffffffffffffffff16815260200190815260200160002054111561249d57600e60008573ffffffffffffffffffffffffffffffffffffffff1673ffffffffffffffffffffffffffffffffffffffff1681526020019081526020016000205460118190555083601260006101000a81548173ffffffffffffffffffffffffffffffffffffffff021916908373ffffffffffffffffffffffffffffffffffffffff1602179055505b612640565b6124b782600b54612d1a90919063ffffffff16565b600b819055506124d36001600d54612d1a90919063ffffffff16565b600d8190555061252b82600f60008773ffffffffffffffffffffffffffffffffffffffff1673ffffffffffffffffffffffffffffffffffffffff16815260200190815260200160002054612d1a90919063ffffffff16565b600f60008673ffffffffffffffffffffffffffffffffffffffff1673ffffffffffffffffffffffffffffffffffffffff16815260200190815260200160002081905550601154600f60008673ffffffffffffffffffffffffffffffffffffffff1673ffffffffffffffffffffffffffffffffffffffff16815260200190815260200160002054111561263f57600f60008573ffffffffffffffffffffffffffffffffffffffff1673ffffffffffffffffffffffffffffffffffffffff1681526020019081526020016000205460118190555083601260006101000a81548173ffffffffffffffffffffffffffffffffffffffff021916908373ffffffffffffffffffffffffffffffffffffffff1602179055505b5b73__CompoundHelper________________________630c0a769b600460009054906101000a900473ffffffffffffffffffffffffffffffffffffffff16600660009054906101000a900473ffffffffffffffffffffffffffffffffffffffff16856040518463ffffffff1660e01b8152600401808473ffffffffffffffffffffffffffffffffffffffff1673ffffffffffffffffffffffffffffffffffffffff1681526020018373ffffffffffffffffffffffffffffffffffffffff1673ffffffffffffffffffffffffffffffffffffffff168152602001828152602001935050505060206040518083038186803b15801561273b57600080fd5b505af415801561274f573d6000803e3d6000fd5b505050506040513d602081101561276557600080fd5b8101908080519060200190929190505050507fb8385a203db1c9a53995e98892022cf36587e8ab2cf86e67e1be4bba4033f8c2848484604051808473ffffffffffffffffffffffffffffffffffffffff1673ffffffffffffffffffffffffffffffffffffffff16815260200183151515158152602001828152602001935050505060405180910390a1600190506001601660006101000a81548160ff021916908360ff1602179055509392505050565b60008073ffffffffffffffffffffffffffffffffffffffff168273ffffffffffffffffffffffffffffffffffffffff1614156128b9576040517f08c379a000000000000000000000000000000000000000000000000000000000815260040180806020018281038252601d8152602001807f474c5847616d653a20524543454956455f414444524553535f5a45524f00000081525060200191505060405180910390fd5b600660159054906101000a900460ff1661291e576040517f08c379a00000000000000000000000000000000000000000000000000000000081526004018080602001828103825260228152602001806136a56022913960400191505060405180910390fd5b60008090506000600a5414801561293857506000600b5414155b156129465780915050612c5e565b600960009054906101000a900460ff1615612aa5576000600e60008573ffffffffffffffffffffffffffffffffffffffff1673ffffffffffffffffffffffffffffffffffffffff1681526020019081526020016000205411156129f8576129f1600e60008573ffffffffffffffffffffffffffffffffffffffff1673ffffffffffffffffffffffffffffffffffffffff16815260200190815260200160002054600a54601554612cd3565b9050612aa0565b6000600a54148015612a4957506000600f60008573ffffffffffffffffffffffffffffffffffffffff1673ffffffffffffffffffffffffffffffffffffffff16815260200190815260200160002054115b15612a9f57612a9c600f60008573ffffffffffffffffffffffffffffffffffffffff1673ffffffffffffffffffffffffffffffffffffffff16815260200190815260200160002054600b54601554612cd3565b90505b5b612beb565b6000600f60008573ffffffffffffffffffffffffffffffffffffffff1673ffffffffffffffffffffffffffffffffffffffff168152602001908152602001600020541115612b4257612b3b600f60008573ffffffffffffffffffffffffffffffffffffffff1673ffffffffffffffffffffffffffffffffffffffff16815260200190815260200160002054600b54601554612cd3565b9050612bea565b6000600b54148015612b9357506000600e60008573ffffffffffffffffffffffffffffffffffffffff1673ffffffffffffffffffffffffffffffffffffffff16815260200190815260200160002054115b15612be957612be6600e60008573ffffffffffffffffffffffffffffffffffffffff1673ffffffffffffffffffffffffffffffffffffffff16815260200190815260200160002054600a54601554612cd3565b90505b5b5b601260009054906101000a900473ffffffffffffffffffffffffffffffffffffffff1673ffffffffffffffffffffffffffffffffffffffff168373ffffffffffffffffffffffffffffffffffffffff161415612c5957612c5660135482612d1a90919063ffffffff16565b90505b809150505b919050565b600560009054906101000a900473ffffffffffffffffffffffffffffffffffffffff1681565b60155481565b60145481565b600e6020528060005260406000206000915090505481565b600360009054906101000a900473ffffffffffffffffffffffffffffffffffffffff1681565b600080612cfb84612ced85886132ad90919063ffffffff16565b61333390919063ffffffff16565b9050612d108582612d1a90919063ffffffff16565b9150509392505050565b600080828401905083811015612d98576040517f08c379a000000000000000000000000000000000000000000000000000000000815260040180806020018281038252601b8152602001807f536166654d6174683a206164646974696f6e206f766572666c6f77000000000081525060200191505060405180910390fd5b8091505092915050565b600060608473ffffffffffffffffffffffffffffffffffffffff1663a9059cbb8585604051602401808373ffffffffffffffffffffffffffffffffffffffff1673ffffffffffffffffffffffffffffffffffffffff168152602001828152602001925050506040516020818303038152906040529060e01b6020820180517bffffffffffffffffffffffffffffffffffffffffffffffffffffffff83818316178352505050506040518082805190602001908083835b60208310612e7b5780518252602082019150602081019050602083039250612e58565b6001836020036101000a0380198251168184511680821785525050505050509050019150506000604051808303816000865af19150503d8060008114612edd576040519150601f19603f3d011682016040523d82523d6000602084013e612ee2565b606091505b5091509150818015612f225750600081511480612f215750808060200190516020811015612f0f57600080fd5b81019080805190602001909291905050505b5b612f94576040517f08c379a000000000000000000000000000000000000000000000000000000000815260040180806020018281038252601b8152602001807f47616d6548656c7065723a205452414e534645525f4641494c4544000000000081525060200191505060405180910390fd5b5050505050565b600073__CompoundHelper________________________63bba06f27600460009054906101000a900473ffffffffffffffffffffffffffffffffffffffff16600660009054906101000a900473ffffffffffffffffffffffffffffffffffffffff166040518363ffffffff1660e01b8152600401808373ffffffffffffffffffffffffffffffffffffffff1673ffffffffffffffffffffffffffffffffffffffff1681526020018273ffffffffffffffffffffffffffffffffffffffff1673ffffffffffffffffffffffffffffffffffffffff1681526020019250505060206040518083038186803b15801561309057600080fd5b505af41580156130a4573d6000803e3d6000fd5b505050506040513d60208110156130ba57600080fd5b8101908080519060200190929190505050905060006130e6600b54600a54612d1a90919063ffffffff16565b90508082101561315e576040517f08c379a000000000000000000000000000000000000000000000000000000000815260040180806020018281038252601b8152602001807f474c5847616d653a2046494e5f494e434f4d455f494e56414c4944000000000081525060200191505060405180910390fd5b613171818361337d90919063ffffffff16565b60138190555061317f6133c7565b5050565b6000805414801561319657506000600154145b6131eb576040517f08c379a000000000000000000000000000000000000000000000000000000000815260040180806020018281038252602781526020018061370a6027913960400191505060405180910390fd5b808210613243576040517f08c379a00000000000000000000000000000000000000000000000000000000081526004018080602001828103825260228152602001806136e86022913960400191505060405180910390fd5b43821161329b576040517f08c379a00000000000000000000000000000000000000000000000000000000081526004018080602001828103825260228152602001806136e86022913960400191505060405180910390fd5b81600081905550806001819055505050565b6000808314156132c0576000905061332d565b60008284029050828482816132d157fe5b0414613328576040517f08c379a00000000000000000000000000000000000000000000000000000000081526004018080602001828103825260218152602001806136c76021913960400191505060405180910390fd5b809150505b92915050565b600061337583836040518060400160405280601a81526020017f536166654d6174683a206469766973696f6e206279207a65726f0000000000008152506134d9565b905092915050565b60006133bf83836040518060400160405280601e81526020017f536166654d6174683a207375627472616374696f6e206f766572666c6f77000081525061359f565b905092915050565b600960009054906101000a900460ff161561342d5761340560646133f76003600b546132ad90919063ffffffff16565b61333390919063ffffffff16565b601481905550613422601454600b5461337d90919063ffffffff16565b60158190555061347a565b61345660646134486003600a546132ad90919063ffffffff16565b61333390919063ffffffff16565b601481905550613473601454600a5461337d90919063ffffffff16565b6015819055505b600060155411156134d7576134d6600460009054906101000a900473ffffffffffffffffffffffffffffffffffffffff16600560009054906101000a900473ffffffffffffffffffffffffffffffffffffffff16601454612da2565b5b565b60008083118290613585576040517f08c379a00000000000000000000000000000000000000000000000000000000081526004018080602001828103825283818151815260200191508051906020019080838360005b8381101561354a57808201518184015260208101905061352f565b50505050905090810190601f1680156135775780820380516001836020036101000a031916815260200191505b509250505060405180910390fd5b50600083858161359157fe5b049050809150509392505050565b600083831115829061364c576040517f08c379a00000000000000000000000000000000000000000000000000000000081526004018080602001828103825283818151815260200191508051906020019080838360005b838110156136115780820151818401526020810190506135f6565b50505050905090810190601f16801561363e5780820380516001836020036101000a031916815260200191505b509250505060405180910390fd5b506000838503905080915050939250505056fe474c5847616d653a2047414d455f524553554c545f414c52454144595f4f50454e474c5847616d653a2047414d455f524553554c545f414c52454144595f4f5241434c4544474c5847616d653a2047414d455f4e4f545f53544152545f4745545f494e434f4d45536166654d6174683a206d756c7469706c69636174696f6e206f766572666c6f77474c584c6966656379636c653a20424c4f434b5f4e554d4245525f494e56414c4944474c584c6966656379636c653a20424c4f434b5f4e554d4245525f414c52454144595f494e4954a2646970667358221220c3a3016c89b4dda45e6003db87095fb4d8f7052b022f936ba3b2d1dcf8ec1f3a64736f6c63430006020033",
  "source": "pragma solidity ^0.6.0;\n\nimport \"@openzeppelin/contracts/math/SafeMath.sol\";\n\nimport \"./interface/IGLXGame.sol\";\nimport \"./interface/IGLXFactory.sol\";\nimport \"./abstract/GLXLifecycle.sol\";\nimport \"./library/GLXHelper.sol\";\nimport \"./library/CompoundHelper.sol\";\n\n\n//game\n//owner\ncontract GLXGame is GLXLifecycle{\n\n    using SafeMath for uint256;\n\n    //3%\n    uint256 public constant SHARE_HOLDER_RAKE_RATE = 3;\n\n    //factory \n    address public factory;\n    //router \n    address public router;\n\n    //token\n    address public extToken;\n    //token\n    address public intToken;\n    //token\n    address public finToken;\n\n\n    //true false \n    bool public isOnChainGame;\n    //\n    bool public isGameResultOpen;\n\n    //tokenDAI\n    address public gameObjectToken;\n    //\n    uint256 public gameObjectTokenSupply;\n\n\n    //true  false\n    bool public gameResult;\n\n    //\n    uint256 public trueTotalAmount;\n    //\n    uint256 public falseTotalAmount;\n    //\n    uint256 public trueTotalCount;\n    //\n    uint256 public falseTotalCount;\n\n    //\n    mapping (address => uint256) public trueAmountMap;\n    //\n    mapping (address => uint256) public falseAmountMap;\n\n    //falsetrue\n    mapping (address => bool) public isReceivedMap;\n\n    //\n    uint256 public maxAmount;\n    //\n    address public maxAmountAccount;\n\n    //compound \n    uint256 public interestIncome;\n    //3%\n    uint256 public shareHolderProfit;\n    //97%falseTotalAmount - shareHolderProfit  trueTotalAmount - shareHolderProfit\n    uint256 public winPrincipalProfit;\n\n    //\n    uint8 private unlocked = 1;\n\n\n    //\n    event Bet(address account, bool direction, uint256 amount);\n    //\n    event ReceiveIncome(address account);\n    //\n    event UpdateGameResult();\n    //oracle\n    event UpdateGameResultByOracle(uint8 _gameResult);\n\n    constructor() public {\n        factory = msg.sender;\n    }\n\n    // factoryinit\n    function initialize(\n        address _router,//router\n        address _extToken,//DAI\n        address _intToken,//gDAI\n        address _finToken,//defi\n\n        uint _startBlockNumber,//\n        uint _endBlockNumber,//\n        bool _isOnChainGame,//\n        address _gameObjectToken,//\n        uint256 _gameObjectTokenSupply//\n    )  external onlyFactory {\n\n        router = _router;\n        extToken = _extToken;\n        intToken = _intToken;\n        finToken = _finToken;\n\n        _initBlockNumber(_startBlockNumber, _endBlockNumber);\n\n        isOnChainGame = _isOnChainGame;\n\n        //0\n        gameObjectToken = _gameObjectToken;\n        gameObjectTokenSupply = _gameObjectTokenSupply;\n\n    }\n\n    //\n    modifier lock() {\n        require(unlocked == 1, 'GLXGame: LOCKED');\n        unlocked = 0;\n        _;\n        unlocked = 1;\n    }\n\n    modifier onlyRouter() {\n        require(msg.sender == router, 'GLXGame: FORBIDDEN');\n        _;\n    }\n\n    modifier onlyFactory() {\n        require(msg.sender == factory, 'GLXGame: FORBIDDEN');\n        _;\n    }\n\n    modifier whenNotStarted() {\n        require(!isStarted(), \"Start: started\");\n        _;\n    }\n    modifier whenStarted() {\n        require(isStarted(), \"Start: not started\");\n        _;\n    }\n\n\n    modifier whenNotEnded() {\n        require(!isEnded(), \"End: ended\");\n        _;\n    }\n\n    modifier whenEnded() {\n        require(isEnded(), \"End: not ended\");\n        _;\n    }\n\n    //\n    modifier whenCanReceive() {\n        require(isCanReceive(), 'GLXGame: NOT_CAN_RECEIVE');\n        _;\n    }\n\n\n\n    //\n    function isCanReceive() public view returns (bool) {\n        if (!isEnded()) {\n            return false;\n        }\n\n        if(!isGameResultOpen) {\n            return false;\n        }\n\n        return true;\n    }\n\n\n\n    //\n    function isExistIncomeNeedReceive(address account) external view returns (bool) {\n        if (!isCanReceive()) {\n            return false;\n        }\n\n        if ((trueAmountMap[account] > 0) && gameResult) {\n                return true;\n        }\n\n        if ((falseAmountMap[account] > 0) && !gameResult) {\n            return true;\n        }\n\n        if ((trueAmountMap[account] > 0) && !gameResult && (falseTotalAmount == 0)) {\n            return true;\n        }\n\n        if ((falseAmountMap[account] > 0) && gameResult && (trueTotalAmount == 0)) {\n            return true;\n        }\n\n\n        if (account == maxAmountAccount) {\n            return true;\n        }\n\n        return false;\n    }\n\n    // \n    function bet(address account, bool direction, uint256 amount) external lock whenNotStarted onlyRouter returns (bool) {\n        require(account != address(0), \"GLXGame: BET_ADDRESS_ZERO\");\n        require(amount > 0, \"GLXGame: BET_AMOUNT_ZERO\");\n\n        if (direction) {\n            //\n            trueTotalAmount = trueTotalAmount.add(amount);\n            trueTotalCount = trueTotalCount.add(1);\n            trueAmountMap[account] = trueAmountMap[account].add(amount);\n            if (trueAmountMap[account] > maxAmount){\n                maxAmount = trueAmountMap[account];\n                maxAmountAccount = account;\n            }\n        } else {\n            //\n            falseTotalAmount = falseTotalAmount.add(amount);\n            falseTotalCount = falseTotalCount.add(1);\n            falseAmountMap[account] = falseAmountMap[account].add(amount);\n            if (falseAmountMap[account] > maxAmount){\n                maxAmount = falseAmountMap[account];\n                maxAmountAccount = account;\n            }\n        }\n\n        CompoundHelper.supply(extToken,  finToken, amount);\n\n        emit Bet(account, direction, amount);\n\n        return true;\n    }\n\n    //\n    function receiveIncome(address _account) external lock whenCanReceive returns (bool) {\n        require(_account != address(0), \"GLXGame: RECEIVE_ADDRESS_ZERO\");\n        require(!isReceivedMap[_account], \"GLXGame: RECEIVED\");\n\n        // oracle\n        require(isGameResultOpen, \"GLXGame: GAME_NOT_START_GET_INCOME\");\n\n        require(trueTotalAmount != 0 || falseTotalAmount != 0, \"GLXGame: NOBODY_BET\");\n\n\n        uint256 receiveAmount = 0;\n\n        //\n        if (gameResult) {\n            //\n            if (trueAmountMap[_account] > 0) {\n                //\n                receiveAmount = GLXHelper.calReceiveAmount(trueAmountMap[_account], trueTotalAmount, winPrincipalProfit);\n\n            } else if ((trueTotalAmount == 0) && (falseAmountMap[_account] > 0)) {\n                //97%\n                receiveAmount = GLXHelper.calReceiveAmount(falseAmountMap[_account], falseTotalAmount, winPrincipalProfit);\n            }\n\n        } else {\n            //\n            if (falseAmountMap[_account] > 0) {\n                //\n                receiveAmount = GLXHelper.calReceiveAmount(falseAmountMap[_account], falseTotalAmount, winPrincipalProfit);\n\n            } else if ((falseTotalAmount == 0) && (trueAmountMap[_account] > 0)) {\n                //97%\n                receiveAmount = GLXHelper.calReceiveAmount(trueAmountMap[_account], trueTotalAmount, winPrincipalProfit);\n            }\n        }\n\n        if (_account == maxAmountAccount) {\n            // \n            receiveAmount = receiveAmount.add(interestIncome);\n        }\n\n        if(receiveAmount > 0) {\n            GLXHelper.safeTransfer(extToken, _account, receiveAmount);\n\n            isReceivedMap[_account] = true;\n        }\n\n        emit ReceiveIncome(_account);\n        return true;\n    }\n\n    // \n    function _transferProfit2ShareHolder() private {\n        if (gameResult) {\n            shareHolderProfit = falseTotalAmount.mul(SHARE_HOLDER_RAKE_RATE).div(uint256(100));\n            //\n            winPrincipalProfit = falseTotalAmount.sub(shareHolderProfit);\n        } else {\n            shareHolderProfit = trueTotalAmount.mul(SHARE_HOLDER_RAKE_RATE).div(uint256(100));\n            winPrincipalProfit = trueTotalAmount.sub(shareHolderProfit);\n        }\n\n        if (winPrincipalProfit > 0) {\n            GLXHelper.safeTransfer(extToken, intToken, shareHolderProfit);\n        }\n    }\n\n    //:\n    function _clearProfit() private {\n\n        uint256 totalAmount = CompoundHelper.redeem(extToken,  finToken);\n        uint256 initAmount = trueTotalAmount.add(falseTotalAmount);\n\n        require(totalAmount >= initAmount, \"GLXGame: FIN_INCOME_INVALID\");\n\n        interestIncome = totalAmount.sub(initAmount);\n\n\n        // burn\n        _transferProfit2ShareHolder();\n\n\n    }\n\n    // ,\n    function updateGameResult() external lock whenEnded returns (bool) {\n\n        // oracle\n        require(isOnChainGame, \"GLXGame: NOT_ON_CHAIN_GAME\");\n        require(!isGameResultOpen, \"GLXGame: GAME_RESULT_ALREADY_OPEN\");\n\n        if (IERC20(gameObjectToken).totalSupply() >= gameObjectTokenSupply) {\n            gameResult = true;\n        } else {\n            gameResult = false;\n        }\n\n        //\n        _clearProfit();\n\n        //\n        isGameResultOpen = true;\n\n        emit UpdateGameResult();\n\n        return true;\n    }\n\n\n\n    // oracle;2true 1false \n    function updateGameResultByOracle(uint8 _gameResult) external lock onlyRouter whenEnded returns (bool) {\n\n        // oracle\n        require(!isOnChainGame, \"GLXGame: NOT_OFF_CHAIN_GAME\");\n        require(!isGameResultOpen, \"GLXGame: GAME_RESULT_ALREADY_ORACLED\");\n        require(_gameResult == 1 ||  _gameResult == 2, \"GLXGame: gameResult\");\n\n\n        if(_gameResult == 1) {\n            gameResult = true;\n        } else{\n            gameResult = true;\n        }\n\n        //\n        _clearProfit();\n\n        //\n        isGameResultOpen = true;\n\n        emit UpdateGameResultByOracle(_gameResult);\n\n        return true;\n    }\n\n    function getIncomeAmount(address _account) external view returns (uint256) {\n        require(_account != address(0), \"GLXGame: RECEIVE_ADDRESS_ZERO\");\n\n        // oracle\n        require(isGameResultOpen, \"GLXGame: GAME_NOT_START_GET_INCOME\");\n\n        uint256 receiveAmount = 0;\n\n        if ((trueTotalAmount == 0) && (falseTotalAmount != 0)) {\n            return receiveAmount;\n        }\n\n\n\n        //\n        if (gameResult) {\n            //\n            if (trueAmountMap[_account] > 0) {\n                //\n                receiveAmount = GLXHelper.calReceiveAmount(trueAmountMap[_account], trueTotalAmount, winPrincipalProfit);\n\n            } else if ((trueTotalAmount == 0) && (falseAmountMap[_account] > 0)) {\n                //97%\n                receiveAmount = GLXHelper.calReceiveAmount(falseAmountMap[_account], falseTotalAmount, winPrincipalProfit);\n            }\n\n        } else {\n            //\n            if (falseAmountMap[_account] > 0) {\n                //\n                receiveAmount = GLXHelper.calReceiveAmount(falseAmountMap[_account], falseTotalAmount, winPrincipalProfit);\n\n            } else if ((falseTotalAmount == 0) && (trueAmountMap[_account] > 0)) {\n                //97%\n                receiveAmount = GLXHelper.calReceiveAmount(trueAmountMap[_account], trueTotalAmount, winPrincipalProfit);\n            }\n        }\n\n        if (_account == maxAmountAccount) {\n            // \n            receiveAmount = receiveAmount.add(interestIncome);\n        }\n\n        return receiveAmount;\n\n    }\n\n        //\n    function getCurUserCount() external view returns (uint256) {\n        return trueTotalCount.add(falseTotalCount);\n    }\n}\n",
  "sourcePath": "/Users/xuyulin/code/xuyulinnn/glxdefi/glxdefi-core/contracts/GLXGame.sol",
  "compiler": {
    "name": "solc",
    "version": "0.6.2+commit.bacdbe57.Emscripten.clang"
  },
  "schemaVersion": "3.2.3",
  "updatedAt": "2020-08-08T17:59:06.269Z",
  "devdoc": {
    "methods": {}
  },
  "userdoc": {
    "methods": {}
  }
}